{
  "_format": "hh-sol-artifact-1",
  "contractName": "AqaroEarlySale",
  "sourceName": "contracts/token/sale/EarlySale.sol",
  "abi": [
    {
      "inputs": [
        {
          "internalType": "address",
          "name": "_factoryController",
          "type": "address"
        },
        {
          "internalType": "address",
          "name": "_aqaroToken",
          "type": "address"
        }
      ],
      "stateMutability": "nonpayable",
      "type": "constructor"
    },
    {
      "inputs": [],
      "name": "AmountIsZero",
      "type": "error"
    },
    {
      "inputs": [],
      "name": "NotEnoughEthSent",
      "type": "error"
    },
    {
      "inputs": [],
      "name": "NotEnoughTokensInContract",
      "type": "error"
    },
    {
      "inputs": [],
      "name": "OnlyFactoryController",
      "type": "error"
    },
    {
      "inputs": [],
      "name": "SaleHasEnded",
      "type": "error"
    },
    {
      "inputs": [],
      "name": "SaleNotEnded",
      "type": "error"
    },
    {
      "anonymous": false,
      "inputs": [
        {
          "indexed": true,
          "internalType": "address",
          "name": "_controller",
          "type": "address"
        },
        {
          "indexed": false,
          "internalType": "uint256",
          "name": "_ethAmount",
          "type": "uint256"
        }
      ],
      "name": "EthTransferredToController",
      "type": "event"
    },
    {
      "anonymous": false,
      "inputs": [
        {
          "indexed": true,
          "internalType": "address",
          "name": "_investor",
          "type": "address"
        },
        {
          "indexed": false,
          "internalType": "uint256",
          "name": "_amount",
          "type": "uint256"
        },
        {
          "indexed": false,
          "internalType": "uint256",
          "name": "_ethAmount",
          "type": "uint256"
        }
      ],
      "name": "Invested",
      "type": "event"
    },
    {
      "inputs": [],
      "name": "aqaroToken",
      "outputs": [
        {
          "internalType": "contract AqaroTokenInterface",
          "name": "",
          "type": "address"
        }
      ],
      "stateMutability": "view",
      "type": "function"
    },
    {
      "inputs": [
        {
          "internalType": "address",
          "name": "",
          "type": "address"
        }
      ],
      "name": "balances",
      "outputs": [
        {
          "internalType": "uint256",
          "name": "",
          "type": "uint256"
        }
      ],
      "stateMutability": "view",
      "type": "function"
    },
    {
      "inputs": [
        {
          "internalType": "address",
          "name": "",
          "type": "address"
        }
      ],
      "name": "ethBalances",
      "outputs": [
        {
          "internalType": "uint256",
          "name": "",
          "type": "uint256"
        }
      ],
      "stateMutability": "view",
      "type": "function"
    },
    {
      "inputs": [],
      "name": "factoryController",
      "outputs": [
        {
          "internalType": "address",
          "name": "",
          "type": "address"
        }
      ],
      "stateMutability": "view",
      "type": "function"
    },
    {
      "inputs": [
        {
          "internalType": "uint256",
          "name": "_amount",
          "type": "uint256"
        }
      ],
      "name": "investInAqaro",
      "outputs": [
        {
          "internalType": "bool",
          "name": "success",
          "type": "bool"
        }
      ],
      "stateMutability": "payable",
      "type": "function"
    },
    {
      "inputs": [],
      "name": "saleEndDate",
      "outputs": [
        {
          "internalType": "uint256",
          "name": "",
          "type": "uint256"
        }
      ],
      "stateMutability": "view",
      "type": "function"
    },
    {
      "inputs": [],
      "name": "tokenPrice",
      "outputs": [
        {
          "internalType": "uint256",
          "name": "",
          "type": "uint256"
        }
      ],
      "stateMutability": "view",
      "type": "function"
    },
    {
      "inputs": [],
      "name": "transferEthToController",
      "outputs": [],
      "stateMutability": "nonpayable",
      "type": "function"
    },
    {
      "inputs": [],
      "name": "withdrawTokensToController",
      "outputs": [],
      "stateMutability": "nonpayable",
      "type": "function"
    }
  ],
  "bytecode": "0x60806040526571afd498d00060035534801561001a57600080fd5b506040516109f53803806109f58339810160408190526100399161009d565b60016000819055600280546001600160a01b038086166001600160a01b0319928316179092558254918416911617905561007642624f1a006100d0565b600455506100f79050565b80516001600160a01b038116811461009857600080fd5b919050565b600080604083850312156100b057600080fd5b6100b983610081565b91506100c760208401610081565b90509250929050565b808201808211156100f157634e487b7160e01b600052601160045260246000fd5b92915050565b6108ef806101066000396000f3fe6080604052600436106100965760003560e01c80633cfba0e3116100695780637ff9b5961161004e5780637ff9b596146101905780639e866151146101a6578063b30b84d5146101bb57600080fd5b80633cfba0e31461014d5780636affdc391461017a57600080fd5b8063177987411461009b5780631f287809146100c35780631f96b5ff146100fb57806327e235e314610112575b600080fd5b6100ae6100a93660046107cd565b6101db565b60405190151581526020015b60405180910390f35b3480156100cf57600080fd5b506002546100e3906001600160a01b031681565b6040516001600160a01b0390911681526020016100ba565b34801561010757600080fd5b506101106104cb565b005b34801561011e57600080fd5b5061013f61012d3660046107e6565b60056020526000908152604090205481565b6040519081526020016100ba565b34801561015957600080fd5b5061013f6101683660046107e6565b60066020526000908152604090205481565b34801561018657600080fd5b5061013f60045481565b34801561019c57600080fd5b5061013f60035481565b3480156101b257600080fd5b5061011061062e565b3480156101c757600080fd5b506001546100e3906001600160a01b031681565b60006101e5610774565b600454421115610221576040517f8531bb5600000000000000000000000000000000000000000000000000000000815260040160405180910390fd5b8160000361025b576040517f43ad20fc00000000000000000000000000000000000000000000000000000000815260040160405180910390fd5b6001546040516370a0823160e01b815230600482015283916001600160a01b0316906370a0823190602401602060405180830381865afa1580156102a3573d6000803e3d6000fd5b505050506040513d601f19601f820116820180604052508101906102c79190610816565b10156102ff576040517f7dca456400000000000000000000000000000000000000000000000000000000815260040160405180910390fd5b670de0b6b3a7640000826003546103169190610845565b6103209190610862565b3414610358576040517fe16b18b400000000000000000000000000000000000000000000000000000000815260040160405180910390fd5b3360009081526005602052604081208054849290610377908490610884565b9091555050336000908152600660205260408120805434929061039b908490610884565b90915550506001546040517fa9059cbb000000000000000000000000000000000000000000000000000000008152336004820152602481018490526001600160a01b039091169063a9059cbb906044016020604051808303816000875af115801561040a573d6000803e3d6000fd5b505050506040513d601f19601f8201168201806040525081019061042e9190610897565b9050806104825760405162461bcd60e51b815260206004820181905260248201527f417161726f4561726c7953616c653a205472616e73666572206661696c65642e60448201526064015b60405180910390fd5b6040805183815234602082015233917f9e9d071824fd57d062ca63fd8b786d8da48a6807eebbcb2d83f9e8d21398e28c910160405180910390a26104c66001600055565b919050565b6104d3610774565b6002546001600160a01b031633146104fe57604051631b4e5b5560e21b815260040160405180910390fd5b60045442101561052157604051639d98b04b60e01b815260040160405180910390fd5b6001546002546040516370a0823160e01b81523060048201526001600160a01b039283169263a9059cbb92169083906370a0823190602401602060405180830381865afa158015610576573d6000803e3d6000fd5b505050506040513d601f19601f8201168201806040525081019061059a9190610816565b6040517fffffffff0000000000000000000000000000000000000000000000000000000060e085901b1681526001600160a01b03909216600483015260248201526044016020604051808303816000875af11580156105fd573d6000803e3d6000fd5b505050506040513d601f19601f820116820180604052508101906106219190610897565b5061062c6001600055565b565b610636610774565b6002546001600160a01b0316331461066157604051631b4e5b5560e21b815260040160405180910390fd5b60045442101561068457604051639d98b04b60e01b815260040160405180910390fd5b6002546040516000916001600160a01b03169047908381818185875af1925050503d80600081146106d1576040519150601f19603f3d011682016040523d82523d6000602084013e6106d6565b606091505b50509050806107275760405162461bcd60e51b815260206004820152601060248201527f5472616e73666572206661696c65642e000000000000000000000000000000006044820152606401610479565b6002546040514781526001600160a01b03909116907f6fc4539427ad7d8cae3bbd248f642c5030055aa45234d160905238882d1810749060200160405180910390a25061062c6001600055565b6002600054036107c65760405162461bcd60e51b815260206004820152601f60248201527f5265656e7472616e637947756172643a207265656e7472616e742063616c6c006044820152606401610479565b6002600055565b6000602082840312156107df57600080fd5b5035919050565b6000602082840312156107f857600080fd5b81356001600160a01b038116811461080f57600080fd5b9392505050565b60006020828403121561082857600080fd5b5051919050565b634e487b7160e01b600052601160045260246000fd5b808202811582820484141761085c5761085c61082f565b92915050565b60008261087f57634e487b7160e01b600052601260045260246000fd5b500490565b8082018082111561085c5761085c61082f565b6000602082840312156108a957600080fd5b8151801515811461080f57600080fdfea2646970667358221220c92120c6cd798f9980d9021126dcce948dd0393374b1870e3747267ffc24f4ed64736f6c63430008110033",
  "linkReferences": {},
  "deployedLinkReferences": {}
}