{
  "_format": "hh-sol-artifact-1",
  "contractName": "MortgagePool",
  "sourceName": "contracts/mortgage/staking/MortgagePool.sol",
  "abi": [
    {
      "inputs": [
        {
          "internalType": "address",
          "name": "_factoryController",
          "type": "address"
        }
      ],
      "stateMutability": "nonpayable",
      "type": "constructor"
    },
    {
      "stateMutability": "payable",
      "type": "fallback"
    },
    {
      "inputs": [],
      "name": "contractBalance",
      "outputs": [
        {
          "internalType": "uint256",
          "name": "",
          "type": "uint256"
        }
      ],
      "stateMutability": "view",
      "type": "function"
    },
    {
      "inputs": [],
      "name": "factoryController",
      "outputs": [
        {
          "internalType": "address",
          "name": "",
          "type": "address"
        }
      ],
      "stateMutability": "view",
      "type": "function"
    },
    {
      "inputs": [
        {
          "internalType": "address",
          "name": "_mortgageProvider",
          "type": "address"
        }
      ],
      "name": "getMortgageLiquidityAmount",
      "outputs": [
        {
          "internalType": "uint256",
          "name": "",
          "type": "uint256"
        }
      ],
      "stateMutability": "view",
      "type": "function"
    },
    {
      "inputs": [],
      "name": "getMortgageProviders",
      "outputs": [
        {
          "internalType": "address[]",
          "name": "",
          "type": "address[]"
        }
      ],
      "stateMutability": "view",
      "type": "function"
    },
    {
      "inputs": [
        {
          "internalType": "address",
          "name": "",
          "type": "address"
        }
      ],
      "name": "mortgageLiquidity",
      "outputs": [
        {
          "internalType": "uint256",
          "name": "",
          "type": "uint256"
        }
      ],
      "stateMutability": "view",
      "type": "function"
    },
    {
      "inputs": [
        {
          "internalType": "uint256",
          "name": "",
          "type": "uint256"
        }
      ],
      "name": "mortgageProviders",
      "outputs": [
        {
          "internalType": "address",
          "name": "",
          "type": "address"
        }
      ],
      "stateMutability": "view",
      "type": "function"
    },
    {
      "inputs": [],
      "name": "provideMortgageLiquidity",
      "outputs": [],
      "stateMutability": "payable",
      "type": "function"
    },
    {
      "inputs": [],
      "name": "totalBalance",
      "outputs": [
        {
          "internalType": "uint256",
          "name": "",
          "type": "uint256"
        }
      ],
      "stateMutability": "view",
      "type": "function"
    },
    {
      "stateMutability": "payable",
      "type": "receive"
    }
  ],
  "bytecode": "0x608060405234801561001057600080fd5b5060405161055e38038061055e83398101604081905261002f91610059565b6001600081905580546001600160a01b0319166001600160a01b0392909216919091179055610089565b60006020828403121561006b57600080fd5b81516001600160a01b038116811461008257600080fd5b9392505050565b6104c6806100986000396000f3fe60806040526004361061007e5760003560e01c80638b7afe2e1161004e5780638b7afe2e1461013c578063ad7a672f1461014f578063b166e8d914610165578063dd4304e9146101855761008d565b8062a59f76146100955780631f287809146100c05780633582ad731461008d578063413a00f4146100f85761008d565b3661008d5761008b6101b2565b005b61008b6101b2565b3480156100a157600080fd5b506100aa6102d5565b6040516100b791906103ba565b60405180910390f35b3480156100cc57600080fd5b506001546100e0906001600160a01b031681565b6040516001600160a01b0390911681526020016100b7565b34801561010457600080fd5b5061012e610113366004610407565b6001600160a01b031660009081526003602052604090205490565b6040519081526020016100b7565b34801561014857600080fd5b504761012e565b34801561015b57600080fd5b5061012e60025481565b34801561017157600080fd5b506100e0610180366004610437565b610337565b34801561019157600080fd5b5061012e6101a0366004610407565b60036020526000908152604090205481565b6101ba610361565b600034116102345760405162461bcd60e51b8152602060048201526024808201527f4d7573742073656e6420657468657220746f2070726f76696465206c6971756960448201527f646974790000000000000000000000000000000000000000000000000000000060648201526084015b60405180910390fd5b34600260008282546102469190610450565b9091555050336000908152600360205260408120805434929061026a908490610450565b9091555050600480546001810182556000919091527f8a35acfbc15ff81a39ae7d344fd709f28e8600b4aa8c65c6b64bfe7fe36bd19b0180547fffffffffffffffffffffffff000000000000000000000000000000000000000016331790556102d36001600055565b565b6060600480548060200260200160405190810160405280929190818152602001828054801561032d57602002820191906000526020600020905b81546001600160a01b0316815260019091019060200180831161030f575b5050505050905090565b6004818154811061034757600080fd5b6000918252602090912001546001600160a01b0316905081565b6002600054036103b35760405162461bcd60e51b815260206004820152601f60248201527f5265656e7472616e637947756172643a207265656e7472616e742063616c6c00604482015260640161022b565b6002600055565b6020808252825182820181905260009190848201906040850190845b818110156103fb5783516001600160a01b0316835292840192918401916001016103d6565b50909695505050505050565b60006020828403121561041957600080fd5b81356001600160a01b038116811461043057600080fd5b9392505050565b60006020828403121561044957600080fd5b5035919050565b8082018082111561048a577f4e487b7100000000000000000000000000000000000000000000000000000000600052601160045260246000fd5b9291505056fea26469706673582212208806378c356958436cfc719bbd96afc2f3228e158d962c822b6c44b009a432a264736f6c63430008110033",
  "linkReferences": {},
  "deployedLinkReferences": {}
}