{
  "_format": "hh-sol-artifact-1",
  "contractName": "MortgageFactory",
  "sourceName": "contracts/mortgage/MortgageFactory.sol",
  "abi": [
    {
      "inputs": [
        {
          "internalType": "address",
          "name": "_factoryController",
          "type": "address"
        }
      ],
      "stateMutability": "nonpayable",
      "type": "constructor"
    },
    {
      "inputs": [],
      "name": "CannotRequestPropertyWhenPropertyOwner",
      "type": "error"
    },
    {
      "inputs": [],
      "name": "InvalidAddress",
      "type": "error"
    },
    {
      "inputs": [
        {
          "internalType": "address",
          "name": "propertyContract",
          "type": "address"
        }
      ],
      "name": "MortgageAlreadyRequested",
      "type": "error"
    },
    {
      "inputs": [],
      "name": "MortgageDurationInPast",
      "type": "error"
    },
    {
      "inputs": [],
      "name": "MortgagePaymentAmountZero",
      "type": "error"
    },
    {
      "inputs": [],
      "name": "PropertyDoesNotExists",
      "type": "error"
    },
    {
      "anonymous": false,
      "inputs": [
        {
          "indexed": true,
          "internalType": "address",
          "name": "mortgageContract",
          "type": "address"
        },
        {
          "indexed": true,
          "internalType": "address",
          "name": "propertyContract",
          "type": "address"
        },
        {
          "indexed": true,
          "internalType": "address",
          "name": "owner",
          "type": "address"
        }
      ],
      "name": "MortgageRequested",
      "type": "event"
    },
    {
      "inputs": [],
      "name": "factoryController",
      "outputs": [
        {
          "internalType": "address",
          "name": "",
          "type": "address"
        }
      ],
      "stateMutability": "view",
      "type": "function"
    },
    {
      "inputs": [],
      "name": "getMortgageContracts",
      "outputs": [
        {
          "internalType": "address[]",
          "name": "",
          "type": "address[]"
        }
      ],
      "stateMutability": "view",
      "type": "function"
    },
    {
      "inputs": [],
      "name": "interestRate",
      "outputs": [
        {
          "internalType": "uint256",
          "name": "",
          "type": "uint256"
        }
      ],
      "stateMutability": "view",
      "type": "function"
    },
    {
      "inputs": [
        {
          "internalType": "uint256",
          "name": "",
          "type": "uint256"
        }
      ],
      "name": "mortgageContracts",
      "outputs": [
        {
          "internalType": "address",
          "name": "",
          "type": "address"
        }
      ],
      "stateMutability": "view",
      "type": "function"
    },
    {
      "inputs": [
        {
          "internalType": "address",
          "name": "",
          "type": "address"
        },
        {
          "internalType": "address",
          "name": "",
          "type": "address"
        }
      ],
      "name": "ownerPropertyMortgage",
      "outputs": [
        {
          "internalType": "address",
          "name": "",
          "type": "address"
        }
      ],
      "stateMutability": "view",
      "type": "function"
    },
    {
      "inputs": [
        {
          "internalType": "address",
          "name": "",
          "type": "address"
        }
      ],
      "name": "propertyMortgageRequests",
      "outputs": [
        {
          "internalType": "address",
          "name": "",
          "type": "address"
        }
      ],
      "stateMutability": "view",
      "type": "function"
    },
    {
      "inputs": [
        {
          "internalType": "address",
          "name": "propertyContract",
          "type": "address"
        },
        {
          "components": [
            {
              "internalType": "string",
              "name": "name",
              "type": "string"
            },
            {
              "internalType": "int256",
              "name": "incomeMonthly",
              "type": "int256"
            },
            {
              "internalType": "int256",
              "name": "incomeYearly",
              "type": "int256"
            },
            {
              "internalType": "bool",
              "name": "KYCVerified",
              "type": "bool"
            }
          ],
          "internalType": "struct MortgageRequester",
          "name": "_requester",
          "type": "tuple"
        },
        {
          "components": [
            {
              "internalType": "int256",
              "name": "amountUSD",
              "type": "int256"
            },
            {
              "internalType": "uint256",
              "name": "amountETH",
              "type": "uint256"
            },
            {
              "internalType": "uint256",
              "name": "totalPayments",
              "type": "uint256"
            },
            {
              "internalType": "uint256",
              "name": "endDate",
              "type": "uint256"
            },
            {
              "internalType": "int16",
              "name": "interestRate",
              "type": "int16"
            }
          ],
          "internalType": "struct MortgagePayment",
          "name": "_mortgagePayment",
          "type": "tuple"
        }
      ],
      "name": "requestMortgage",
      "outputs": [],
      "stateMutability": "nonpayable",
      "type": "function"
    }
  ],
  "bytecode": "0x60806040526109c460025534801561001657600080fd5b506040516115933803806115938339810160408190526100359161005f565b6001600081905580546001600160a01b0319166001600160a01b039290921691909117905561008f565b60006020828403121561007157600080fd5b81516001600160a01b038116811461008857600080fd5b9392505050565b6114f58061009e6000396000f3fe60806040523480156200001157600080fd5b5060043610620000875760003560e01c80635d7d65af11620000625780635d7d65af14620001005780636f8e55ac14620001195780637c3a00fd1462000150578063b674a935146200016957600080fd5b80631f287809146200008c578063507b092014620000bd5780635650b90014620000e9575b600080fd5b600154620000a0906001600160a01b031681565b6040516001600160a01b0390911681526020015b60405180910390f35b620000a0620000ce36600462000673565b6003602052600090815260409020546001600160a01b031681565b620000a0620000fa3660046200069a565b62000182565b6200010a620001ad565b604051620000b49190620006b4565b620000a06200012a36600462000703565b60046020908152600092835260408084209091529082529020546001600160a01b031681565b6200015a60025481565b604051908152602001620000b4565b620001806200017a36600462000741565b62000211565b005b600581815481106200019357600080fd5b6000918252602090912001546001600160a01b0316905081565b606060058054806020026020016040519081016040528092919081815260200182805480156200020757602002820191906000526020600020905b81546001600160a01b03168152600190910190602001808311620001e8575b5050505050905090565b6200021b620005d7565b6001600160a01b0383166200025c576040517fe6c4247b00000000000000000000000000000000000000000000000000000000815260040160405180910390fd5b42816060013510156200029b576040517f9a0d215500000000000000000000000000000000000000000000000000000000815260040160405180910390fd5b60208101351580620002ac57508035155b15620002e4576040517fb0d2f13200000000000000000000000000000000000000000000000000000000815260040160405180910390fd5b6000839050336001600160a01b0316816001600160a01b031663f446c38f6040518163ffffffff1660e01b8152600401602060405180830381865afa15801562000332573d6000803e3d6000fd5b505050506040513d601f19601f82011682018060405250810190620003589190620007b8565b6001600160a01b03160362000399576040517f9fce1f5700000000000000000000000000000000000000000000000000000000815260040160405180910390fd5b336000908152600360205260409020546001600160a01b03808316911603620003fe576040517f8a928ead0000000000000000000000000000000000000000000000000000000081526001600160a01b03851660048201526024015b60405180910390fd5b6000816001600160a01b0316635cfbeb776040518163ffffffff1660e01b8152600401600060405180830381865afa1580156200043f573d6000803e3d6000fd5b505050506040513d6000823e601f3d908101601f1916820160405262000469919081019062000b3a565b505097505050505050505080600014806200048357504281115b15620004bb576040517fb23f869300000000000000000000000000000000000000000000000000000000815260040160405180910390fd5b600082338686604051620004cf906200064c565b620004de949392919062000cbd565b604051809103906000f080158015620004fb573d6000803e3d6000fd5b5033600081815260036020908152604080832080546001600160a01b03808b167fffffffffffffffffffffffff0000000000000000000000000000000000000000928316811790935560048552838620838752909452828520805494881694821685179055600580546001810182559086527f036b6384b5eca791c62761152d0c79bb0604c104a5fb6f4eb0703f3154bb3db0018054909116841790559051949550929390917f6ddc5f55c2921d595c1b4dcf831319f79693a56adcdb52599ca0bfac92e616a191a4505050620005d26001600055565b505050565b60026000540362000645576040517f08c379a000000000000000000000000000000000000000000000000000000000815260206004820152601f60248201527f5265656e7472616e637947756172643a207265656e7472616e742063616c6c006044820152606401620003f5565b6002600055565b61073d8062000d8383390190565b6001600160a01b03811681146200067057600080fd5b50565b6000602082840312156200068657600080fd5b813562000693816200065a565b9392505050565b600060208284031215620006ad57600080fd5b5035919050565b6020808252825182820181905260009190848201906040850190845b81811015620006f75783516001600160a01b031683529284019291840191600101620006d0565b50909695505050505050565b600080604083850312156200071757600080fd5b823562000724816200065a565b9150602083013562000736816200065a565b809150509250929050565b600080600083850360e08112156200075857600080fd5b843562000765816200065a565b9350602085013567ffffffffffffffff8111156200078257600080fd5b8501608081880312156200079557600080fd5b925060a0603f1982011215620007aa57600080fd5b506040840190509250925092565b600060208284031215620007cb57600080fd5b815162000693816200065a565b7f4e487b7100000000000000000000000000000000000000000000000000000000600052604160045260246000fd5b60405160a0810167ffffffffffffffff811182821017156200082d576200082d620007d8565b60405290565b604051601f8201601f1916810167ffffffffffffffff811182821017156200085f576200085f620007d8565b604052919050565b600082601f8301126200087957600080fd5b815167ffffffffffffffff811115620008965762000896620007d8565b6020620008ac601f8301601f1916820162000833565b8281528582848701011115620008c157600080fd5b60005b83811015620008e1578581018301518282018401528201620008c4565b506000928101909101919091529392505050565b600060a082840312156200090857600080fd5b6200091262000807565b9050815167ffffffffffffffff808211156200092d57600080fd5b6200093b8583860162000867565b835260208401519150808211156200095257600080fd5b620009608583860162000867565b602084015260408401519150808211156200097a57600080fd5b620009888583860162000867565b60408401526060840151915080821115620009a257600080fd5b620009b08583860162000867565b60608401526080840151915080821115620009ca57600080fd5b50620009d98482850162000867565b60808301525092915050565b600060808284031215620009f857600080fd5b6040516080810167ffffffffffffffff828210818311171562000a1f5762000a1f620007d8565b816040528293508451915062000a35826200065a565b9082526020840151908082111562000a4c57600080fd5b62000a5a8683870162000867565b6020840152604085015191508082111562000a7457600080fd5b5062000a838582860162000867565b60408301525060608301516003811062000a9c57600080fd5b6060919091015292915050565b8051600a811062000ab957600080fd5b919050565b80151581146200067057600080fd5b60006040828403121562000ae057600080fd5b6040516040810181811067ffffffffffffffff8211171562000b065762000b06620007d8565b8060405250809150825162000b1b8162000abe565b8152602083015162000b2d8162000abe565b6020919091015292915050565b6000806000806000806000806000806101608b8d03121562000b5b57600080fd5b8a51995060208b015167ffffffffffffffff8082111562000b7b57600080fd5b62000b898e838f0162000867565b9a5060408d015191508082111562000ba057600080fd5b62000bae8e838f01620008f5565b995060608d0151985060808d0151975060a08d015191508082111562000bd357600080fd5b62000be18e838f01620009e5565b965060c08d015191508082111562000bf857600080fd5b5062000c078d828e0162000867565b94505060e08b0151925062000c206101008c0162000aa9565b915062000c328c6101208d0162000acd565b90509295989b9194979a5092959850565b81835281816020850137506000828201602090810191909152601f909101601f19169091010190565b803562000ab98162000abe565b8035825260208101356020830152604081013560408301526060810135606083015260808101358060010b80821462000cb157600080fd5b80608085015250505050565b60006101006001600160a01b0380881684528087166020850152508060408401528435601e1986360301811262000cf357600080fd5b850160208101903567ffffffffffffffff81111562000d1157600080fd5b80360382131562000d2157600080fd5b60808386015262000d386101808601828462000c43565b925050506020850135610120840152604085013561014084015262000d606060860162000c6c565b1515610160840152905062000d79606083018462000c79565b9594505050505056fe60806040526212750060095562278d00600a5534801561001e57600080fd5b5060405161073d38038061073d83398101604081905261003d91610269565b6001600055606081015142111561006757604051639a0d215560e01b815260040160405180910390fd5b606081015160085560018054600280546001600160a01b0319166001600160a01b0388169081179091556001600160a81b031990911617905581518290600b9081906100b39082610422565b50602082810151600183015560408084015160028401556060938401516003938401805460ff19169115159190911790558451600f819055918501516010819055908501516011819055938501516012556080909401516013805461ffff191661ffff90921691909117905560165560179290925581546001600160a01b0319166001600160a01b039490941693909317905550600655506104e1565b80516001600160a01b038116811461016757600080fd5b919050565b634e487b7160e01b600052604160045260246000fd5b604051608081016001600160401b03811182821017156101a4576101a461016c565b60405290565b604051601f8201601f191681016001600160401b03811182821017156101d2576101d261016c565b604052919050565b8051801515811461016757600080fd5b600060a082840312156101fc57600080fd5b60405160a081016001600160401b038111828210171561021e5761021e61016c565b80604052508091508251815260208301516020820152604083015160408201526060830151606082015260808301518060010b811461025c57600080fd5b6080919091015292915050565b600080600080610100858703121561028057600080fd5b61028985610150565b93506020610298818701610150565b60408701519094506001600160401b03808211156102b557600080fd5b908701906080828a0312156102c957600080fd5b6102d1610182565b8251828111156102e057600080fd5b8301601f81018b136102f157600080fd5b8051838111156103035761030361016c565b610315601f8201601f191687016101aa565b93508084528b8682840101111561032b57600080fd5b60005b8181101561034957828101870151858201880152860161032e565b5060008682860101525050818152838301518482015260408301516040820152610375606084016101da565b60608201528095505050505061038e86606087016101ea565b905092959194509250565b600181811c908216806103ad57607f821691505b6020821081036103cd57634e487b7160e01b600052602260045260246000fd5b50919050565b601f82111561041d57600081815260208120601f850160051c810160208610156103fa5750805b601f850160051c820191505b8181101561041957828155600101610406565b5050505b505050565b81516001600160401b0381111561043b5761043b61016c565b61044f816104498454610399565b846103d3565b602080601f831160018114610484576000841561046c5750858301515b600019600386901b1c1916600185901b178555610419565b600085815260208120601f198616915b828110156104b357888601518255948401946001909101908401610494565b50858210156104d15787850151600019600388901b60f8161c191681555b5050505050600190811b01905550565b61024d806104f06000396000f3fe608060405234801561001057600080fd5b50600436106100c85760003560e01c8063409bb92e116100815780637150d8ae1161005b5780637150d8ae1461018d5780638fca9673146101ad578063c24a0f8b146101cd57600080fd5b8063409bb92e146101725780635ce85a451461017b5780636c8b7efa1461018457600080fd5b8063176fd3f0116100b2578063176fd3f0146100f25780631cc1cf4614610137578063200d2ed21461014057600080fd5b80625b4487146100cd5780630b97bc86146100e9575b600080fd5b6100d660065481565b6040519081526020015b60405180910390f35b6100d660075481565b6001546101129073ffffffffffffffffffffffffffffffffffffffff1681565b60405173ffffffffffffffffffffffffffffffffffffffff90911681526020016100e0565b6100d6600a5481565b6001546101659074010000000000000000000000000000000000000000900460ff1681565b6040516100e091906101d6565b6100d660095481565b6100d660045481565b6100d660055481565b6003546101129073ffffffffffffffffffffffffffffffffffffffff1681565b6002546101129073ffffffffffffffffffffffffffffffffffffffff1681565b6100d660085481565b6020810160088310610211577f4e487b7100000000000000000000000000000000000000000000000000000000600052602160045260246000fd5b9190529056fea2646970667358221220c4303d61cd3449eea3d9172da902b317b322a37226456ef27cfa0c402b5cdc8b64736f6c63430008110033a2646970667358221220de31c0354faa5d3455b3c4c7a1227fc1bf423bb4bb5a750bec1f2c0662e9fe7f64736f6c63430008110033",
  "linkReferences": {},
  "deployedLinkReferences": {}
}