{
  "_format": "hh-sol-artifact-1",
  "contractName": "PropertyFactory",
  "sourceName": "contracts/property/PropertyFactory.sol",
  "abi": [
    {
      "inputs": [
        {
          "internalType": "address",
          "name": "_factoryController",
          "type": "address"
        }
      ],
      "stateMutability": "nonpayable",
      "type": "constructor"
    },
    {
      "anonymous": false,
      "inputs": [
        {
          "indexed": true,
          "internalType": "address",
          "name": "propertyAddress",
          "type": "address"
        },
        {
          "indexed": true,
          "internalType": "address",
          "name": "owner",
          "type": "address"
        },
        {
          "indexed": true,
          "internalType": "uint256",
          "name": "propertyId",
          "type": "uint256"
        },
        {
          "indexed": false,
          "internalType": "uint256",
          "name": "askingPrice",
          "type": "uint256"
        }
      ],
      "name": "PropertyCreated",
      "type": "event"
    },
    {
      "anonymous": false,
      "inputs": [
        {
          "indexed": true,
          "internalType": "address",
          "name": "propertyAddress",
          "type": "address"
        },
        {
          "indexed": true,
          "internalType": "address",
          "name": "buyer",
          "type": "address"
        },
        {
          "indexed": true,
          "internalType": "address",
          "name": "seller",
          "type": "address"
        },
        {
          "indexed": false,
          "internalType": "uint256",
          "name": "price",
          "type": "uint256"
        },
        {
          "indexed": false,
          "internalType": "uint256",
          "name": "propertyId",
          "type": "uint256"
        }
      ],
      "name": "PropertySold",
      "type": "event"
    },
    {
      "stateMutability": "payable",
      "type": "fallback"
    },
    {
      "inputs": [
        {
          "components": [
            {
              "components": [
                {
                  "internalType": "string",
                  "name": "street",
                  "type": "string"
                },
                {
                  "internalType": "string",
                  "name": "city",
                  "type": "string"
                },
                {
                  "internalType": "string",
                  "name": "state",
                  "type": "string"
                },
                {
                  "internalType": "string",
                  "name": "country",
                  "type": "string"
                },
                {
                  "internalType": "string",
                  "name": "zip",
                  "type": "string"
                }
              ],
              "internalType": "struct Address",
              "name": "addr",
              "type": "tuple"
            },
            {
              "components": [
                {
                  "internalType": "address payable",
                  "name": "wallet",
                  "type": "address"
                },
                {
                  "internalType": "string",
                  "name": "name",
                  "type": "string"
                },
                {
                  "internalType": "string",
                  "name": "email",
                  "type": "string"
                },
                {
                  "internalType": "enum KYCStatus",
                  "name": "status",
                  "type": "uint8"
                }
              ],
              "internalType": "struct Seller",
              "name": "seller",
              "type": "tuple"
            },
            {
              "internalType": "string",
              "name": "description",
              "type": "string"
            },
            {
              "internalType": "uint256",
              "name": "askingPrice",
              "type": "uint256"
            },
            {
              "internalType": "string",
              "name": "service_id",
              "type": "string"
            },
            {
              "internalType": "int256",
              "name": "price",
              "type": "int256"
            }
          ],
          "internalType": "struct CreateProperty",
          "name": "_property",
          "type": "tuple"
        }
      ],
      "name": "createProperty",
      "outputs": [
        {
          "internalType": "address",
          "name": "",
          "type": "address"
        },
        {
          "internalType": "uint256",
          "name": "",
          "type": "uint256"
        }
      ],
      "stateMutability": "nonpayable",
      "type": "function"
    },
    {
      "inputs": [],
      "name": "factoryController",
      "outputs": [
        {
          "internalType": "address",
          "name": "",
          "type": "address"
        }
      ],
      "stateMutability": "view",
      "type": "function"
    },
    {
      "inputs": [],
      "name": "getPropertiesForCaller",
      "outputs": [
        {
          "internalType": "address[]",
          "name": "",
          "type": "address[]"
        }
      ],
      "stateMutability": "view",
      "type": "function"
    },
    {
      "inputs": [],
      "name": "getPropertyContracts",
      "outputs": [
        {
          "internalType": "address[]",
          "name": "",
          "type": "address[]"
        }
      ],
      "stateMutability": "view",
      "type": "function"
    },
    {
      "inputs": [
        {
          "internalType": "address",
          "name": "",
          "type": "address"
        },
        {
          "internalType": "uint256",
          "name": "",
          "type": "uint256"
        }
      ],
      "name": "properties",
      "outputs": [
        {
          "internalType": "address",
          "name": "",
          "type": "address"
        }
      ],
      "stateMutability": "view",
      "type": "function"
    },
    {
      "inputs": [
        {
          "internalType": "uint256",
          "name": "",
          "type": "uint256"
        }
      ],
      "name": "propertyContracts",
      "outputs": [
        {
          "internalType": "address",
          "name": "",
          "type": "address"
        }
      ],
      "stateMutability": "view",
      "type": "function"
    },
    {
      "inputs": [],
      "name": "propertyCount",
      "outputs": [
        {
          "internalType": "uint256",
          "name": "",
          "type": "uint256"
        }
      ],
      "stateMutability": "view",
      "type": "function"
    },
    {
      "inputs": [
        {
          "internalType": "uint256",
          "name": "",
          "type": "uint256"
        }
      ],
      "name": "propertyInfo",
      "outputs": [
        {
          "internalType": "uint256",
          "name": "id",
          "type": "uint256"
        },
        {
          "internalType": "string",
          "name": "service_id",
          "type": "string"
        },
        {
          "components": [
            {
              "internalType": "string",
              "name": "street",
              "type": "string"
            },
            {
              "internalType": "string",
              "name": "city",
              "type": "string"
            },
            {
              "internalType": "string",
              "name": "state",
              "type": "string"
            },
            {
              "internalType": "string",
              "name": "country",
              "type": "string"
            },
            {
              "internalType": "string",
              "name": "zip",
              "type": "string"
            }
          ],
          "internalType": "struct Address",
          "name": "addr",
          "type": "tuple"
        },
        {
          "internalType": "uint256",
          "name": "askingPrice",
          "type": "uint256"
        },
        {
          "internalType": "int256",
          "name": "price",
          "type": "int256"
        },
        {
          "components": [
            {
              "internalType": "address payable",
              "name": "wallet",
              "type": "address"
            },
            {
              "internalType": "string",
              "name": "name",
              "type": "string"
            },
            {
              "internalType": "string",
              "name": "email",
              "type": "string"
            },
            {
              "internalType": "enum KYCStatus",
              "name": "status",
              "type": "uint8"
            }
          ],
          "internalType": "struct Seller",
          "name": "seller",
          "type": "tuple"
        },
        {
          "internalType": "string",
          "name": "description",
          "type": "string"
        },
        {
          "internalType": "uint256",
          "name": "created",
          "type": "uint256"
        },
        {
          "internalType": "enum Status",
          "name": "status",
          "type": "uint8"
        },
        {
          "components": [
            {
              "internalType": "bool",
              "name": "sellerAccepted",
              "type": "bool"
            },
            {
              "internalType": "bool",
              "name": "buyerAccepted",
              "type": "bool"
            }
          ],
          "internalType": "struct OfferStatus",
          "name": "offerStatus",
          "type": "tuple"
        }
      ],
      "stateMutability": "view",
      "type": "function"
    },
    {
      "inputs": [
        {
          "internalType": "address",
          "name": "_propertyAddress",
          "type": "address"
        }
      ],
      "name": "propertyIsSold",
      "outputs": [],
      "stateMutability": "nonpayable",
      "type": "function"
    },
    {
      "inputs": [],
      "name": "withdraw",
      "outputs": [],
      "stateMutability": "nonpayable",
      "type": "function"
    },
    {
      "stateMutability": "payable",
      "type": "receive"
    }
  ],
  "bytecode": "0x608060405234801561001057600080fd5b50604051620044cb380380620044cb8339810160408190526100319161005b565b6001600081905580546001600160a01b0319166001600160a01b039290921691909117905561008b565b60006020828403121561006d57600080fd5b81516001600160a01b038116811461008457600080fd5b9392505050565b614430806200009b6000396000f3fe608060405260043610620000b75760003560e01c8063616c87e7116200006b578063c361a3351162000051578063c361a33514620001e6578063c4f680f5146200020d578063fa4d66a4146200023257005b8063616c87e71462000189578063630899c514620001a157005b806331f5b94d116200009d57806331f5b94d14620001255780633ccfd60b146200014a5780635567845e146200016257005b806314bfcdd714620000c15780631f287809146200010357005b36620000bf57005b005b348015620000ce57600080fd5b50620000e6620000e036600462001555565b6200026f565b6040516001600160a01b0390911681526020015b60405180910390f35b3480156200011057600080fd5b50600154620000e6906001600160a01b031681565b3480156200013257600080fd5b50620000e66200014436600462001584565b620002a8565b3480156200015757600080fd5b50620000bf620002d3565b3480156200016f57600080fd5b506200017a620003f9565b604051620000fa91906200159e565b3480156200019657600080fd5b506200017a62000466565b348015620001ae57600080fd5b50620001c6620001c0366004620015ed565b620004c8565b604080516001600160a01b039093168352602083019190915201620000fa565b348015620001f357600080fd5b50620001fe60055481565b604051908152602001620000fa565b3480156200021a57600080fd5b50620000bf6200022c36600462001632565b620009e2565b3480156200023f57600080fd5b50620002576200025136600462001584565b62000eab565b604051620000fa9a99989796959493929190620017d3565b600260205281600052604060002081815481106200028c57600080fd5b6000918252602090912001546001600160a01b03169150829050565b60048181548110620002b957600080fd5b6000918252602090912001546001600160a01b0316905081565b6001546001600160a01b03163314620003425760405162461bcd60e51b815260206004820152602660248201527f4f6e6c7920636f6e74726f6c6c65722063616e2063616c6c20746869732066756044820152653731ba34b7b760d11b60648201526084015b60405180910390fd5b6200034c620014d6565b6040513390600090829047908381818185875af1925050503d806000811462000392576040519150601f19603f3d011682016040523d82523d6000602084013e62000397565b606091505b5050905080620003ea5760405162461bcd60e51b815260206004820152601060248201527f5472616e73666572206661696c65642e00000000000000000000000000000000604482015260640162000339565b5050620003f76001600055565b565b336000908152600260209081526040918290208054835181840281018401909452808452606093928301828280156200045c57602002820191906000526020600020905b81546001600160a01b031681526001909101906020018083116200043d575b5050505050905090565b606060048054806020026020016040519081016040528092919081815260200182805480156200045c576020028201919060005260206000209081546001600160a01b031681526001909101906020018083116200043d575050505050905090565b600080620004d5620014d6565b600560008154620004e6906200187c565b90915550604080516101408101909152600554815260009060208101620005116080870187620018a4565b8080601f016020809104026020016040519081016040528093929190818152602001838380828437600092019190915250505090825250602001620005578680620018f5565b620005629062001a13565b8152602001856060013581526020018560a0013581526020016040518060800160405280336001600160a01b03168152602001878060200190620005a7919062001b01565b620005b7906020810190620018a4565b8080601f016020809104026020016040519081016040528093929190818152602001838380828437600092019190915250505090825250602090810190620006029089018962001b01565b62000612906040810190620018a4565b8080601f0160208091040260200160405190810160405280939291908181526020018383808284376000920191909152505050908252506020908101906200065d9089018962001b01565b6200067090608081019060600162001b26565b600281111562000684576200068462001735565b905281526020016200069a6040870187620018a4565b8080601f0160208091040260200160405190810160405280939291908181526020018383808284376000920182905250938552505042602084015250604090910190815260408051808201825260008082526020828101829052938401919091526005548152600383522082518155908201519192508291600182019062000723908262001bd5565b5060408201518051600283019081906200073e908262001bd5565b506020820151600182019062000755908262001bd5565b50604082015160028201906200076c908262001bd5565b506060820151600382019062000783908262001bd5565b50608082015160048201906200079a908262001bd5565b505050606082015160078201556080820151600882015560a0820151805160098301805473ffffffffffffffffffffffffffffffffffffffff19166001600160a01b039092169190911781556020820151600a840190620007fc908262001bd5565b506040820151600282019062000813908262001bd5565b50606082015160038201805460ff191660018360028111156200083a576200083a62001735565b0217905550505060c0820151600d82019062000857908262001bd5565b5060e0820151600e820155610100820151600f8201805460ff1916600183600981111562000889576200088962001735565b0217905550610120919091015180516010909201805460209092015161ffff1990921692151561ff0019169290921761010091151591909102179055604051600090309033908490620008dc9062001531565b620008ea9392919062001ca2565b604051809103906000f08015801562000907573d6000803e3d6000fd5b503360008181526002602090815260408083208054600180820183559185528385200180546001600160a01b03881673ffffffffffffffffffffffffffffffffffffffff1991821681179092556004805493840181559095527f8a35acfbc15ff81a39ae7d344fd709f28e8600b4aa8c65c6b64bfe7fe36bd19b90910180549094168117909355600554606088015191519182529495507f30f21be1f4eb82dc65f9bdc8e626f0768f9373eda6ea591b2081b78f131c4742910160405180910390a4600554909350915050620009dd6001600055565b915091565b6001546001600160a01b0316331462000a4d5760405162461bcd60e51b815260206004820152602660248201527f4f6e6c7920636f6e74726f6c6c65722063616e2063616c6c20746869732066756044820152653731ba34b7b760d11b606482015260840162000339565b62000a57620014d6565b6001600160a01b03811662000aaf5760405162461bcd60e51b815260206004820152601760248201527f50726f706572747920646f6573206e6f74206578697374000000000000000000604482015260640162000339565b6000819050600080600080846001600160a01b0316635cfbeb776040518163ffffffff1660e01b8152600401600060405180830381865afa15801562000af9573d6000803e3d6000fd5b505050506040513d6000823e601f3d908101601f1916820160405262000b23919081019062002032565b99509950505097505050505093506005600981111562000b475762000b4762001735565b82600981111562000b5c5762000b5c62001735565b1462000bab5760405162461bcd60e51b815260206004820152601460248201527f50726f7065727479206973206e6f7420536f6c64000000000000000000000000604482015260640162000339565b8051151560011462000c265760405162461bcd60e51b815260206004820152602160248201527f53656c6c657220686173206e6f7420616363657074656420746865206f66666560448201527f7200000000000000000000000000000000000000000000000000000000000000606482015260840162000339565b6020810151151560011462000c7e5760405162461bcd60e51b815260206004820181905260248201527f427579657220686173206e6f7420616363657074656420746865206f66666572604482015260640162000339565b6000856001600160a01b031663dfa0cfb36040518163ffffffff1660e01b81526004016020604051808303816000875af115801562000cc1573d6000803e3d6000fd5b505050506040513d601f19601f8201168201806040525081019062000ce791906200213b565b90508062000d5e5760405162461bcd60e51b815260206004820152602260248201527f50726f7065727479206f776e657273686970207472616e73666572206661696c60448201527f6564000000000000000000000000000000000000000000000000000000000000606482015260840162000339565b6000866001600160a01b03166391f901576040518163ffffffff1660e01b8152600401602060405180830381865afa15801562000d9f573d6000803e3d6000fd5b505050506040513d601f19601f8201168201806040525081019062000dc5919062002159565b90506000876001600160a01b031663d57bde796040518163ffffffff1660e01b8152600401602060405180830381865afa15801562000e08573d6000803e3d6000fd5b505050506040513d601f19601f8201168201806040525081019062000e2e919062002179565b905085600001516001600160a01b0316826001600160a01b0316896001600160a01b03167fe4325c1fdcbe82bc58d54e4c6d17476405e2bcbcd7b84a6431913f9e18d6d67e848b60405162000e8d929190918252602082015260400190565b60405180910390a4505050505050505062000ea86001600055565b50565b6003602052600090815260409020805460018201805491929162000ecf9062001b46565b80601f016020809104026020016040519081016040528092919081815260200182805462000efd9062001b46565b801562000f4e5780601f1062000f225761010080835404028352916020019162000f4e565b820191906000526020600020905b81548152906001019060200180831162000f3057829003601f168201915b505050505090806002016040518060a001604052908160008201805462000f759062001b46565b80601f016020809104026020016040519081016040528092919081815260200182805462000fa39062001b46565b801562000ff45780601f1062000fc85761010080835404028352916020019162000ff4565b820191906000526020600020905b81548152906001019060200180831162000fd657829003601f168201915b505050505081526020016001820180546200100f9062001b46565b80601f01602080910402602001604051908101604052809291908181526020018280546200103d9062001b46565b80156200108e5780601f1062001062576101008083540402835291602001916200108e565b820191906000526020600020905b8154815290600101906020018083116200107057829003601f168201915b50505050508152602001600282018054620010a99062001b46565b80601f0160208091040260200160405190810160405280929190818152602001828054620010d79062001b46565b8015620011285780601f10620010fc5761010080835404028352916020019162001128565b820191906000526020600020905b8154815290600101906020018083116200110a57829003601f168201915b50505050508152602001600382018054620011439062001b46565b80601f0160208091040260200160405190810160405280929190818152602001828054620011719062001b46565b8015620011c25780601f106200119657610100808354040283529160200191620011c2565b820191906000526020600020905b815481529060010190602001808311620011a457829003601f168201915b50505050508152602001600482018054620011dd9062001b46565b80601f01602080910402602001604051908101604052809291908181526020018280546200120b9062001b46565b80156200125c5780601f1062001230576101008083540402835291602001916200125c565b820191906000526020600020905b8154815290600101906020018083116200123e57829003601f168201915b505050919092525050506007820154600883015460408051608081019091526009850180546001600160a01b03168252600a8601805495969495939493602084019190620012aa9062001b46565b80601f0160208091040260200160405190810160405280929190818152602001828054620012d89062001b46565b8015620013295780601f10620012fd5761010080835404028352916020019162001329565b820191906000526020600020905b8154815290600101906020018083116200130b57829003601f168201915b50505050508152602001600282018054620013449062001b46565b80601f0160208091040260200160405190810160405280929190818152602001828054620013729062001b46565b8015620013c35780601f106200139757610100808354040283529160200191620013c3565b820191906000526020600020905b815481529060010190602001808311620013a557829003601f168201915b5050509183525050600382015460209091019060ff166002811115620013ed57620013ed62001735565b600281111562001401576200140162001735565b815250509080600d018054620014179062001b46565b80601f0160208091040260200160405190810160405280929190818152602001828054620014459062001b46565b8015620014965780601f106200146a5761010080835404028352916020019162001496565b820191906000526020600020905b8154815290600101906020018083116200147857829003601f168201915b50505050600e830154600f8401546040805180820190915260109095015460ff80821615158752610100909104811615156020870152939491931691508a565b6002600054036200152a5760405162461bcd60e51b815260206004820152601f60248201527f5265656e7472616e637947756172643a207265656e7472616e742063616c6c00604482015260640162000339565b6002600055565b612267806200219483390190565b6001600160a01b038116811462000ea857600080fd5b600080604083850312156200156957600080fd5b823562001576816200153f565b946020939093013593505050565b6000602082840312156200159757600080fd5b5035919050565b6020808252825182820181905260009190848201906040850190845b81811015620015e15783516001600160a01b031683529284019291840191600101620015ba565b50909695505050505050565b6000602082840312156200160057600080fd5b813567ffffffffffffffff8111156200161857600080fd5b820160c081850312156200162b57600080fd5b9392505050565b6000602082840312156200164557600080fd5b81356200162b816200153f565b60005b838110156200166f57818101518382015260200162001655565b50506000910152565b600081518084526200169281602086016020860162001652565b601f01601f19169290920160200192915050565b6000815160a08452620016bd60a085018262001678565b905060208301518482036020860152620016d8828262001678565b91505060408301518482036040860152620016f4828262001678565b9150506060830151848203606086015262001710828262001678565b915050608083015184820360808601526200172c828262001678565b95945050505050565b634e487b7160e01b600052602160045260246000fd5b6001600160a01b038151168252600060208201516080602085015262001775608085018262001678565b90506040830151848203604086015262001790828262001678565b915050606083015160038110620017ab57620017ab62001735565b806060860152508091505092915050565b600a8110620017cf57620017cf62001735565b9052565b60006101608c8352806020840152620017ef8184018d62001678565b9050828103604084015262001805818c620016a6565b905089606084015288608084015282810360a08401526200182781896200174b565b905082810360c08401526200183d818862001678565b9150508460e083015262001856610100830185620017bc565b82511515610120830152602083015115156101408301529b9a5050505050505050505050565b6000600182016200189d57634e487b7160e01b600052601160045260246000fd5b5060010190565b6000808335601e19843603018112620018bc57600080fd5b83018035915067ffffffffffffffff821115620018d857600080fd5b602001915036819003821315620018ee57600080fd5b9250929050565b60008235609e198336030181126200190c57600080fd5b9190910192915050565b634e487b7160e01b600052604160045260246000fd5b60405160a0810167ffffffffffffffff8111828210171562001952576200195262001916565b60405290565b604051601f8201601f1916810167ffffffffffffffff8111828210171562001984576200198462001916565b604052919050565b600067ffffffffffffffff821115620019a957620019a962001916565b50601f01601f191660200190565b600082601f830112620019c957600080fd5b8135620019e0620019da826200198c565b62001958565b818152846020838601011115620019f657600080fd5b816020850160208301376000918101602001919091529392505050565b600060a0823603121562001a2657600080fd5b62001a306200192c565b823567ffffffffffffffff8082111562001a4957600080fd5b62001a5736838701620019b7565b8352602085013591508082111562001a6e57600080fd5b62001a7c36838701620019b7565b6020840152604085013591508082111562001a9657600080fd5b62001aa436838701620019b7565b6040840152606085013591508082111562001abe57600080fd5b62001acc36838701620019b7565b6060840152608085013591508082111562001ae657600080fd5b5062001af536828601620019b7565b60808301525092915050565b60008235607e198336030181126200190c57600080fd5b6003811062000ea857600080fd5b60006020828403121562001b3957600080fd5b81356200162b8162001b18565b600181811c9082168062001b5b57607f821691505b60208210810362001b7c57634e487b7160e01b600052602260045260246000fd5b50919050565b601f82111562001bd057600081815260208120601f850160051c8101602086101562001bab5750805b601f850160051c820191505b8181101562001bcc5782815560010162001bb7565b5050505b505050565b815167ffffffffffffffff81111562001bf25762001bf262001916565b62001c0a8162001c03845462001b46565b8462001b82565b602080601f83116001811462001c42576000841562001c295750858301515b600019600386901b1c1916600185901b17855562001bcc565b600085815260208120601f198616915b8281101562001c735788860151825594840194600190910190840162001c52565b508582101562001c925787850151600019600388901b60f8161c191681555b5050505050600190811b01905550565b60006001600160a01b0380861683528085166020840152506060604083015282516060830152602083015161016080608085015262001ce66101c085018362001678565b91506040850151605f19808685030160a087015262001d068483620016a6565b9350606087015160c0870152608087015160e087015260a0870151915061010081878603018188015262001d3b85846200174b565b945060c0880151925061012082888703018189015262001d5c868562001678565b955060e089015161014089015281890151935062001d7d85890185620017bc565b88015180511515610180890152602081015115156101a0890152935062001da392505050565b5095945050505050565b600082601f83011262001dbf57600080fd5b815162001dd0620019da826200198c565b81815284602083860101111562001de657600080fd5b62001df982602083016020870162001652565b949350505050565b600060a0828403121562001e1457600080fd5b62001e1e6200192c565b9050815167ffffffffffffffff8082111562001e3957600080fd5b62001e478583860162001dad565b8352602084015191508082111562001e5e57600080fd5b62001e6c8583860162001dad565b6020840152604084015191508082111562001e8657600080fd5b62001e948583860162001dad565b6040840152606084015191508082111562001eae57600080fd5b62001ebc8583860162001dad565b6060840152608084015191508082111562001ed657600080fd5b5062001af58482850162001dad565b60006080828403121562001ef857600080fd5b6040516080810167ffffffffffffffff828210818311171562001f1f5762001f1f62001916565b816040528293508451915062001f35826200153f565b9082526020840151908082111562001f4c57600080fd5b62001f5a8683870162001dad565b6020840152604085015191508082111562001f7457600080fd5b5062001f838582860162001dad565b604083015250606083015162001f998162001b18565b6060919091015292915050565b8051600a811062001fb657600080fd5b919050565b8051801515811462001fb657600080fd5b60006040828403121562001fdf57600080fd5b6040516040810181811067ffffffffffffffff8211171562002005576200200562001916565b604052905080620020168362001fbb565b8152620020266020840162001fbb565b60208201525092915050565b6000806000806000806000806000806101608b8d0312156200205357600080fd5b8a51995060208b015167ffffffffffffffff808211156200207357600080fd5b620020818e838f0162001dad565b9a5060408d01519150808211156200209857600080fd5b620020a68e838f0162001e01565b995060608d0151985060808d0151975060a08d0151915080821115620020cb57600080fd5b620020d98e838f0162001ee5565b965060c08d0151915080821115620020f057600080fd5b50620020ff8d828e0162001dad565b94505060e08b01519250620021186101008c0162001fa6565b91506200212a8c6101208d0162001fcc565b90509295989b9194979a5092959850565b6000602082840312156200214e57600080fd5b6200162b8262001fbb565b6000602082840312156200216c57600080fd5b81516200162b816200153f565b6000602082840312156200218c57600080fd5b505191905056fe60806040523480156200001157600080fd5b5060405162002267380380620022678339810160408190526200003491620005c2565b6001600081905580546001600160a01b0319166001600160a01b038516179055805160029081556020820151829190600390620000729082620007bd565b5060408201518051600283019081906200008d9082620007bd565b5060208201516001820190620000a49082620007bd565b5060408201516002820190620000bb9082620007bd565b5060608201516003820190620000d29082620007bd565b5060808201516004820190620000e99082620007bd565b505050606082015160078201556080820151600882015560a082015180516009830180546001600160a01b0319166001600160a01b039092169190911781556020820151600a8401906200013e9082620007bd565b5060408201516002820190620001559082620007bd565b50606082015160038201805460ff191660018360028111156200017c576200017c62000889565b0217905550505060c0820151600d820190620001999082620007bd565b5060e0820151600e820155610100820151600f8201805460ff19166001836009811115620001cb57620001cb62000889565b0217905550610120919091015180516010909201805460209092015161ffff1990921692151561ff0019169290921761010091151591909102179055601380546001600160a01b0319166001600160a01b038416179055426016819055620002379062093a806200089f565b60175550620008c7915050565b6001600160a01b03811681146200025a57600080fd5b50565b634e487b7160e01b600052604160045260246000fd5b60405160a081016001600160401b03811182821017156200029857620002986200025d565b60405290565b60405161014081016001600160401b03811182821017156200029857620002986200025d565b604051601f8201601f191681016001600160401b0381118282101715620002ef57620002ef6200025d565b604052919050565b600082601f8301126200030957600080fd5b81516001600160401b038111156200032557620003256200025d565b60206200033b601f8301601f19168201620002c4565b82815285828487010111156200035057600080fd5b60005b838110156200037057858101830151828201840152820162000353565b506000928101909101919091529392505050565b600060a082840312156200039757600080fd5b620003a162000273565b82519091506001600160401b0380821115620003bc57600080fd5b620003ca85838601620002f7565b83526020840151915080821115620003e157600080fd5b620003ef85838601620002f7565b602084015260408401519150808211156200040957600080fd5b6200041785838601620002f7565b604084015260608401519150808211156200043157600080fd5b6200043f85838601620002f7565b606084015260808401519150808211156200045957600080fd5b506200046884828501620002f7565b60808301525092915050565b6000608082840312156200048757600080fd5b604051608081016001600160401b038082118383101715620004ad57620004ad6200025d565b8160405282935084519150620004c38262000244565b90825260208401519080821115620004da57600080fd5b620004e886838701620002f7565b602084015260408501519150808211156200050257600080fd5b506200051185828601620002f7565b6040830152506060830151600381106200052a57600080fd5b6060919091015292915050565b8051600a81106200054757600080fd5b919050565b805180151581146200054757600080fd5b6000604082840312156200057057600080fd5b604080519081016001600160401b03811182821017156200059557620005956200025d565b604052905080620005a6836200054c565b8152620005b6602084016200054c565b60208201525092915050565b600080600060608486031215620005d857600080fd5b8351620005e58162000244565b6020850151909350620005f88162000244565b60408501519092506001600160401b03808211156200061657600080fd5b9085019061016082880312156200062c57600080fd5b620006366200029e565b825181526020830151828111156200064d57600080fd5b6200065b89828601620002f7565b6020830152506040830151828111156200067457600080fd5b620006828982860162000384565b604083015250606083015160608201526080830151608082015260a083015182811115620006af57600080fd5b620006bd8982860162000474565b60a08301525060c083015182811115620006d657600080fd5b620006e489828601620002f7565b60c08301525060e083015160e082015261010091506200070682840162000537565b8282015261012091506200071d888385016200055d565b828201528093505050509250925092565b600181811c908216806200074357607f821691505b6020821081036200076457634e487b7160e01b600052602260045260246000fd5b50919050565b601f821115620007b857600081815260208120601f850160051c81016020861015620007935750805b601f850160051c820191505b81811015620007b4578281556001016200079f565b5050505b505050565b81516001600160401b03811115620007d957620007d96200025d565b620007f181620007ea84546200072e565b846200076a565b602080601f831160018114620008295760008415620008105750858301515b600019600386901b1c1916600185901b178555620007b4565b600085815260208120601f198616915b828110156200085a5788860151825594840194600190910190840162000839565b5085821015620008795787850151600019600388901b60f8161c191681555b5050505050600190811b01905550565b634e487b7160e01b600052602160045260246000fd5b80820180821115620008c157634e487b7160e01b600052601160045260246000fd5b92915050565b61199080620008d76000396000f3fe6080604052600436106100f35760003560e01c8063657a5e031161008a578063dfa0cfb311610059578063dfa0cfb314610264578063e52a787414610289578063eb7f5f981461029e578063f446c38f146102b357600080fd5b8063657a5e03146101ee57806391f90157146101f6578063c45a01551461022e578063d57bde791461024e57600080fd5b80633e3581a7116100c65780633e3581a714610178578063454a2ab31461018d5780634e859313146101ad5780635cfbeb77146101c357600080fd5b806315bc0eb3146100f857806326232a2e1461011a578063325a19f1146101425780633552fac914610158575b600080fd5b34801561010457600080fd5b50610118610113366004611684565b6102d3565b005b34801561012657600080fd5b5061012f600281565b6040519081526020015b60405180910390f35b34801561014e57600080fd5b5061012f60165481565b34801561016457600080fd5b5061011861017336600461169d565b6104f9565b34801561018457600080fd5b50610118610604565b34801561019957600080fd5b506101186101a8366004611684565b610752565b3480156101b957600080fd5b5061012f60175481565b3480156101cf57600080fd5b506101d8610802565b6040516101399a999897969594939291906117a7565b610118610dd1565b34801561020257600080fd5b50601554610216906001600160a01b031681565b6040516001600160a01b039091168152602001610139565b34801561023a57600080fd5b50600154610216906001600160a01b031681565b34801561025a57600080fd5b5061012f60145481565b34801561027057600080fd5b50610279610f96565b6040519015158152602001610139565b34801561029557600080fd5b506101186111b8565b3480156102aa57600080fd5b50610118611310565b3480156102bf57600080fd5b50601354610216906001600160a01b031681565b6102db6114a8565b600760115460ff1660098111156102f4576102f4611713565b1461036c5760405162461bcd60e51b815260206004820152603060248201527f7365636f6e64426964206e6f7420616c6c6f776564207768656e206f6666657260448201527f206973206e6f742072656a65637465640000000000000000000000000000000060648201526084015b60405180910390fd5b601554336001600160a01b03909116036103c85760405162461bcd60e51b815260206004820152601a60248201527f416c7265616479207468652068696768657374206269646465720000000000006044820152606401610363565b601454811161043f5760405162461bcd60e51b815260206004820152602b60248201527f42696420616d6f756e74206d7573742062652067726561746572207468616e2060448201527f68696768657374206269640000000000000000000000000000000000000000006064820152608401610363565b600b54336001600160a01b03909116036104c15760405162461bcd60e51b815260206004820152602760248201527f53656c6c65722063616e6e6f7420626964206f6e207468656972206f776e207060448201527f726f7065727479000000000000000000000000000000000000000000000000006064820152608401610363565b6014556015805473ffffffffffffffffffffffffffffffffffffffff19163317905560118054600660ff199091161790556001600055565b6013546001600160a01b031633146105665760405162461bcd60e51b815260206004820152602a60248201527f4f6e6c792070726f7065727479206f776e65722063616e2063616c6c207468696044820152693990333ab731ba34b7b760b11b6064820152608401610363565b61056e6114a8565b600560115460ff16600981111561058757610587611713565b036105d45760405162461bcd60e51b815260206004820152601860248201527f50726f706572747920697320616c726561647920736f6c6400000000000000006044820152606401610363565b6013805473ffffffffffffffffffffffffffffffffffffffff19166001600160a01b038316179055600160005550565b6013546001600160a01b031633146106715760405162461bcd60e51b815260206004820152602a60248201527f4f6e6c792070726f7065727479206f776e65722063616e2063616c6c207468696044820152693990333ab731ba34b7b760b11b6064820152608401610363565b6106796114a8565b600660115460ff16600981111561069257610692611713565b146106df5760405162461bcd60e51b815260206004820181905260248201527f50726f7065727479206973206e6f74206f70656e20666f722062696464696e676044820152606401610363565b6000601454116107315760405162461bcd60e51b815260206004820152601660248201527f4e6f20626964732068617665206265656e206d616465000000000000000000006044820152606401610363565b601180546007919060ff19166001835b02179055506107506001600055565b565b61075a6114a8565b60175442101561079c576017546040517ff1fa6b1000000000000000000000000000000000000000000000000000000000815260040161036391815260200190565b600060115460ff1660098111156107b5576107b5611713565b1461036c5760405162461bcd60e51b815260206004820181905260248201527f50726f7065727479206973206e6f74206f70656e20666f722062696464696e676044820152606401610363565b6002805460038054919291610816906118b8565b80601f0160208091040260200160405190810160405280929190818152602001828054610842906118b8565b801561088f5780601f106108645761010080835404028352916020019161088f565b820191906000526020600020905b81548152906001019060200180831161087257829003601f168201915b505050505090806002016040518060a00160405290816000820180546108b4906118b8565b80601f01602080910402602001604051908101604052809291908181526020018280546108e0906118b8565b801561092d5780601f106109025761010080835404028352916020019161092d565b820191906000526020600020905b81548152906001019060200180831161091057829003601f168201915b50505050508152602001600182018054610946906118b8565b80601f0160208091040260200160405190810160405280929190818152602001828054610972906118b8565b80156109bf5780601f10610994576101008083540402835291602001916109bf565b820191906000526020600020905b8154815290600101906020018083116109a257829003601f168201915b505050505081526020016002820180546109d8906118b8565b80601f0160208091040260200160405190810160405280929190818152602001828054610a04906118b8565b8015610a515780601f10610a2657610100808354040283529160200191610a51565b820191906000526020600020905b815481529060010190602001808311610a3457829003601f168201915b50505050508152602001600382018054610a6a906118b8565b80601f0160208091040260200160405190810160405280929190818152602001828054610a96906118b8565b8015610ae35780601f10610ab857610100808354040283529160200191610ae3565b820191906000526020600020905b815481529060010190602001808311610ac657829003601f168201915b50505050508152602001600482018054610afc906118b8565b80601f0160208091040260200160405190810160405280929190818152602001828054610b28906118b8565b8015610b755780601f10610b4a57610100808354040283529160200191610b75565b820191906000526020600020905b815481529060010190602001808311610b5857829003601f168201915b505050919092525050506007820154600883015460408051608081019091526009850180546001600160a01b03168252600a8601805495969495939493602084019190610bc1906118b8565b80601f0160208091040260200160405190810160405280929190818152602001828054610bed906118b8565b8015610c3a5780601f10610c0f57610100808354040283529160200191610c3a565b820191906000526020600020905b815481529060010190602001808311610c1d57829003601f168201915b50505050508152602001600282018054610c53906118b8565b80601f0160208091040260200160405190810160405280929190818152602001828054610c7f906118b8565b8015610ccc5780601f10610ca157610100808354040283529160200191610ccc565b820191906000526020600020905b815481529060010190602001808311610caf57829003601f168201915b5050509183525050600382015460209091019060ff166002811115610cf357610cf3611713565b6002811115610d0457610d04611713565b815250509080600d018054610d18906118b8565b80601f0160208091040260200160405190810160405280929190818152602001828054610d44906118b8565b8015610d915780601f10610d6657610100808354040283529160200191610d91565b820191906000526020600020905b815481529060010190602001808311610d7457829003601f168201915b50505050600e830154600f8401546040805180820190915260109095015460ff80821615158752610100909104811615156020870152939491931691508a565b6015546001600160a01b03163314610e3e5760405162461bcd60e51b815260206004820152602a60248201527f4f6e6c792068696768657374206269646465722063616e2063616c6c207468696044820152693990333ab731ba34b7b760b11b6064820152608401610363565b610e466114a8565b600860115460ff166009811115610e5f57610e5f611713565b14610eac5760405162461bcd60e51b815260206004820152601060248201527f426964206e6f74206163636570746564000000000000000000000000000000006044820152606401610363565b6015546001600160a01b03163314610f2c5760405162461bcd60e51b815260206004820152602760248201527f4f6e6c792068696768657374206269646465722063616e20616363657074207460448201527f68652073656c6c000000000000000000000000000000000000000000000000006064820152608401610363565b6014543414610f7d5760405162461bcd60e51b815260206004820152601560248201527f496e636f727265637420616d6f756e742073656e7400000000000000000000006044820152606401610363565b6012805461ff0019166101001790556107506001600055565b6001546000906001600160a01b031633146110195760405162461bcd60e51b815260206004820152602360248201527f4f6e6c7920666163746f72792063616e2063616c6c20746869732066756e637460448201527f696f6e00000000000000000000000000000000000000000000000000000000006064820152608401610363565b6110216114a8565b600560115460ff16600981111561103a5761103a611713565b146110875760405162461bcd60e51b815260206004820152601460248201527f50726f7065727479206973206e6f7420736f6c640000000000000000000000006044820152606401610363565b47806110d55760405162461bcd60e51b815260206004820152601760248201527f436f6e747261637420686173206e6f2062616c616e63650000000000000000006044820152606401610363565b601554601380546001600160a01b0390921673ffffffffffffffffffffffffffffffffffffffff199092169190911790556011805460ff1916600917905561111c81611501565b91508161116b5760405162461bcd60e51b815260206004820152601f60248201527f5472616e736665722070726f70657274792066756e6473206661696c65642e006044820152606401610363565b601354600b546040516001600160a01b0392831692909116907f7fd0323aae6d324ceaa61c5e1564b3c3a84d38216da5434d73194ae51f1b6bb290600090a3506111b56001600055565b90565b6013546001600160a01b031633146112255760405162461bcd60e51b815260206004820152602a60248201527f4f6e6c792070726f7065727479206f776e65722063616e2063616c6c207468696044820152693990333ab731ba34b7b760b11b6064820152608401610363565b61122d6114a8565b600660115460ff16600981111561124657611246611713565b146112935760405162461bcd60e51b815260206004820181905260248201527f50726f7065727479206973206e6f74206f70656e20666f722062696464696e676044820152606401610363565b6000601454116112e55760405162461bcd60e51b815260206004820152601660248201527f4e6f20626964732068617665206265656e206d616465000000000000000000006044820152606401610363565b601180546008919060ff191660018302179055506012805460ff191660011790556107506001600055565b6013546001600160a01b0316331461137d5760405162461bcd60e51b815260206004820152602a60248201527f4f6e6c792070726f7065727479206f776e65722063616e2063616c6c207468696044820152693990333ab731ba34b7b760b11b6064820152608401610363565b6113856114a8565b600860115460ff16600981111561139e5761139e611713565b146113eb5760405162461bcd60e51b815260206004820152601060248201527f426964206e6f74206163636570746564000000000000000000000000000000006044820152606401610363565b60125460ff1661143d5760405162461bcd60e51b815260206004820181905260248201527f53656c6c657220686173206e6f74206163636570746564207468652073656c6c6044820152606401610363565b601254610100900460ff166114945760405162461bcd60e51b815260206004820152601f60248201527f427579657220686173206e6f74206163636570746564207468652073656c6c006044820152606401610363565b601180546005919060ff1916600183610741565b6002600054036114fa5760405162461bcd60e51b815260206004820152601f60248201527f5265656e7472616e637947756172643a207265656e7472616e742063616c6c006044820152606401610363565b6002600055565b6000806064611511600285611908565b61151b9190611925565b6001546040519192506000916001600160a01b039091169083908381818185875af1925050503d806000811461156d576040519150601f19603f3d011682016040523d82523d6000602084013e611572565b606091505b50509050806115c35760405162461bcd60e51b815260206004820152601f60248201527f5472616e736665722066656520746f20666163746f7279206661696c65642e006044820152606401610363565b60006115cf8386611947565b600b546040519192506001600160a01b031690600090829084908381818185875af1925050503d8060008114611621576040519150601f19603f3d011682016040523d82523d6000602084013e611626565b606091505b50509050806116775760405162461bcd60e51b815260206004820152601060248201527f5472616e73666572206661696c65642e000000000000000000000000000000006044820152606401610363565b5060019695505050505050565b60006020828403121561169657600080fd5b5035919050565b6000602082840312156116af57600080fd5b81356001600160a01b03811681146116c657600080fd5b9392505050565b6000815180845260005b818110156116f3576020818501810151868301820152016116d7565b506000602082860101526020601f19601f83011685010191505092915050565b634e487b7160e01b600052602160045260246000fd5b6001600160a01b038151168252600060208201516080602085015261175160808501826116cd565b90506040830151848203604086015261176a82826116cd565b91505060608301516003811061178257611782611713565b806060860152508091505092915050565b600a81106117a3576117a3611713565b9052565b60006101608c83528060208401526117c18184018d6116cd565b905082810360408401528a5160a082526117de60a08301826116cd565b905060208c015182820360208401526117f782826116cd565b91505060408c0151828203604084015261181182826116cd565b91505060608c0151828203606084015261182b82826116cd565b91505060808c0151828203608084015261184582826116cd565b9250505089606084015288608084015282810360a08401526118678189611729565b905082810360c084015261187b81886116cd565b9150508460e0830152611892610100830185611793565b82511515610120830152602083015115156101408301529b9a5050505050505050505050565b600181811c908216806118cc57607f821691505b6020821081036118ec57634e487b7160e01b600052602260045260246000fd5b50919050565b634e487b7160e01b600052601160045260246000fd5b808202811582820484141761191f5761191f6118f2565b92915050565b60008261194257634e487b7160e01b600052601260045260246000fd5b500490565b8181038181111561191f5761191f6118f256fea2646970667358221220667d026528f36614a2678104be104ae9ac7bfd88d74542bb623d07b053c4d88e64736f6c63430008110033a2646970667358221220ab0a165251cebec13cf4bcafc10969701212eee2d84ea4f2754706efc3325dc964736f6c63430008110033",
  "linkReferences": {},
  "deployedLinkReferences": {}
}