{
  "_format": "hh-sol-artifact-1",
  "contractName": "Property",
  "sourceName": "contracts/property/Property.sol",
  "abi": [
    {
      "inputs": [
        {
          "internalType": "address",
          "name": "_factory",
          "type": "address"
        },
        {
          "internalType": "address",
          "name": "_propertyOwner",
          "type": "address"
        },
        {
          "components": [
            {
              "internalType": "uint256",
              "name": "id",
              "type": "uint256"
            },
            {
              "internalType": "string",
              "name": "service_id",
              "type": "string"
            },
            {
              "components": [
                {
                  "internalType": "string",
                  "name": "street",
                  "type": "string"
                },
                {
                  "internalType": "string",
                  "name": "city",
                  "type": "string"
                },
                {
                  "internalType": "string",
                  "name": "state",
                  "type": "string"
                },
                {
                  "internalType": "string",
                  "name": "country",
                  "type": "string"
                },
                {
                  "internalType": "string",
                  "name": "zip",
                  "type": "string"
                }
              ],
              "internalType": "struct Address",
              "name": "addr",
              "type": "tuple"
            },
            {
              "internalType": "uint256",
              "name": "askingPrice",
              "type": "uint256"
            },
            {
              "internalType": "int256",
              "name": "price",
              "type": "int256"
            },
            {
              "components": [
                {
                  "internalType": "address payable",
                  "name": "wallet",
                  "type": "address"
                },
                {
                  "internalType": "string",
                  "name": "name",
                  "type": "string"
                },
                {
                  "internalType": "string",
                  "name": "email",
                  "type": "string"
                },
                {
                  "internalType": "enum KYCStatus",
                  "name": "status",
                  "type": "uint8"
                }
              ],
              "internalType": "struct Seller",
              "name": "seller",
              "type": "tuple"
            },
            {
              "internalType": "string",
              "name": "description",
              "type": "string"
            },
            {
              "internalType": "uint256",
              "name": "created",
              "type": "uint256"
            },
            {
              "internalType": "enum Status",
              "name": "status",
              "type": "uint8"
            },
            {
              "components": [
                {
                  "internalType": "bool",
                  "name": "sellerAccepted",
                  "type": "bool"
                },
                {
                  "internalType": "bool",
                  "name": "buyerAccepted",
                  "type": "bool"
                }
              ],
              "internalType": "struct OfferStatus",
              "name": "offerStatus",
              "type": "tuple"
            }
          ],
          "internalType": "struct PropertyInfo",
          "name": "property",
          "type": "tuple"
        }
      ],
      "stateMutability": "nonpayable",
      "type": "constructor"
    },
    {
      "inputs": [
        {
          "internalType": "uint256",
          "name": "bidOpenTime",
          "type": "uint256"
        }
      ],
      "name": "BiddingNotOpen",
      "type": "error"
    },
    {
      "inputs": [
        {
          "internalType": "uint256",
          "name": "requested",
          "type": "uint256"
        },
        {
          "internalType": "uint256",
          "name": "available",
          "type": "uint256"
        }
      ],
      "name": "NotEnoughBalance",
      "type": "error"
    },
    {
      "anonymous": false,
      "inputs": [
        {
          "indexed": true,
          "internalType": "address",
          "name": "seller",
          "type": "address"
        },
        {
          "indexed": true,
          "internalType": "address",
          "name": "buyer",
          "type": "address"
        }
      ],
      "name": "PropertyOwnerShipTransferred",
      "type": "event"
    },
    {
      "inputs": [],
      "name": "acceptAsBuyer",
      "outputs": [],
      "stateMutability": "payable",
      "type": "function"
    },
    {
      "inputs": [],
      "name": "acceptBid",
      "outputs": [],
      "stateMutability": "nonpayable",
      "type": "function"
    },
    {
      "inputs": [
        {
          "internalType": "uint256",
          "name": "offer",
          "type": "uint256"
        }
      ],
      "name": "bid",
      "outputs": [],
      "stateMutability": "nonpayable",
      "type": "function"
    },
    {
      "inputs": [
        {
          "internalType": "uint256",
          "name": "offer",
          "type": "uint256"
        }
      ],
      "name": "bidAgain",
      "outputs": [],
      "stateMutability": "nonpayable",
      "type": "function"
    },
    {
      "inputs": [],
      "name": "biddingOpenTime",
      "outputs": [
        {
          "internalType": "uint256",
          "name": "",
          "type": "uint256"
        }
      ],
      "stateMutability": "view",
      "type": "function"
    },
    {
      "inputs": [],
      "name": "created",
      "outputs": [
        {
          "internalType": "uint256",
          "name": "",
          "type": "uint256"
        }
      ],
      "stateMutability": "view",
      "type": "function"
    },
    {
      "inputs": [],
      "name": "factory",
      "outputs": [
        {
          "internalType": "contract PropertyFactoryInterface",
          "name": "",
          "type": "address"
        }
      ],
      "stateMutability": "view",
      "type": "function"
    },
    {
      "inputs": [],
      "name": "finalizeSellForProperty",
      "outputs": [],
      "stateMutability": "nonpayable",
      "type": "function"
    },
    {
      "inputs": [],
      "name": "highestBid",
      "outputs": [
        {
          "internalType": "uint256",
          "name": "",
          "type": "uint256"
        }
      ],
      "stateMutability": "view",
      "type": "function"
    },
    {
      "inputs": [],
      "name": "highestBidder",
      "outputs": [
        {
          "internalType": "address",
          "name": "",
          "type": "address"
        }
      ],
      "stateMutability": "view",
      "type": "function"
    },
    {
      "inputs": [],
      "name": "platformFee",
      "outputs": [
        {
          "internalType": "uint256",
          "name": "",
          "type": "uint256"
        }
      ],
      "stateMutability": "view",
      "type": "function"
    },
    {
      "inputs": [],
      "name": "propertyInfo",
      "outputs": [
        {
          "internalType": "uint256",
          "name": "id",
          "type": "uint256"
        },
        {
          "internalType": "string",
          "name": "service_id",
          "type": "string"
        },
        {
          "components": [
            {
              "internalType": "string",
              "name": "street",
              "type": "string"
            },
            {
              "internalType": "string",
              "name": "city",
              "type": "string"
            },
            {
              "internalType": "string",
              "name": "state",
              "type": "string"
            },
            {
              "internalType": "string",
              "name": "country",
              "type": "string"
            },
            {
              "internalType": "string",
              "name": "zip",
              "type": "string"
            }
          ],
          "internalType": "struct Address",
          "name": "addr",
          "type": "tuple"
        },
        {
          "internalType": "uint256",
          "name": "askingPrice",
          "type": "uint256"
        },
        {
          "internalType": "int256",
          "name": "price",
          "type": "int256"
        },
        {
          "components": [
            {
              "internalType": "address payable",
              "name": "wallet",
              "type": "address"
            },
            {
              "internalType": "string",
              "name": "name",
              "type": "string"
            },
            {
              "internalType": "string",
              "name": "email",
              "type": "string"
            },
            {
              "internalType": "enum KYCStatus",
              "name": "status",
              "type": "uint8"
            }
          ],
          "internalType": "struct Seller",
          "name": "seller",
          "type": "tuple"
        },
        {
          "internalType": "string",
          "name": "description",
          "type": "string"
        },
        {
          "internalType": "uint256",
          "name": "created",
          "type": "uint256"
        },
        {
          "internalType": "enum Status",
          "name": "status",
          "type": "uint8"
        },
        {
          "components": [
            {
              "internalType": "bool",
              "name": "sellerAccepted",
              "type": "bool"
            },
            {
              "internalType": "bool",
              "name": "buyerAccepted",
              "type": "bool"
            }
          ],
          "internalType": "struct OfferStatus",
          "name": "offerStatus",
          "type": "tuple"
        }
      ],
      "stateMutability": "view",
      "type": "function"
    },
    {
      "inputs": [],
      "name": "propertyOwner",
      "outputs": [
        {
          "internalType": "address",
          "name": "",
          "type": "address"
        }
      ],
      "stateMutability": "view",
      "type": "function"
    },
    {
      "inputs": [],
      "name": "rejectBid",
      "outputs": [],
      "stateMutability": "nonpayable",
      "type": "function"
    },
    {
      "inputs": [],
      "name": "transferPropertyOwnerShip",
      "outputs": [
        {
          "internalType": "bool",
          "name": "success",
          "type": "bool"
        }
      ],
      "stateMutability": "nonpayable",
      "type": "function"
    },
    {
      "inputs": [
        {
          "internalType": "address",
          "name": "_owner",
          "type": "address"
        }
      ],
      "name": "transferPropertyOwnerShipBetweenOwners",
      "outputs": [],
      "stateMutability": "nonpayable",
      "type": "function"
    }
  ],
  "bytecode": "0x60806040523480156200001157600080fd5b5060405162002267380380620022678339810160408190526200003491620005c2565b6001600081905580546001600160a01b0319166001600160a01b038516179055805160029081556020820151829190600390620000729082620007bd565b5060408201518051600283019081906200008d9082620007bd565b5060208201516001820190620000a49082620007bd565b5060408201516002820190620000bb9082620007bd565b5060608201516003820190620000d29082620007bd565b5060808201516004820190620000e99082620007bd565b505050606082015160078201556080820151600882015560a082015180516009830180546001600160a01b0319166001600160a01b039092169190911781556020820151600a8401906200013e9082620007bd565b5060408201516002820190620001559082620007bd565b50606082015160038201805460ff191660018360028111156200017c576200017c62000889565b0217905550505060c0820151600d820190620001999082620007bd565b5060e0820151600e820155610100820151600f8201805460ff19166001836009811115620001cb57620001cb62000889565b0217905550610120919091015180516010909201805460209092015161ffff1990921692151561ff0019169290921761010091151591909102179055601380546001600160a01b0319166001600160a01b038416179055426016819055620002379062093a806200089f565b60175550620008c7915050565b6001600160a01b03811681146200025a57600080fd5b50565b634e487b7160e01b600052604160045260246000fd5b60405160a081016001600160401b03811182821017156200029857620002986200025d565b60405290565b60405161014081016001600160401b03811182821017156200029857620002986200025d565b604051601f8201601f191681016001600160401b0381118282101715620002ef57620002ef6200025d565b604052919050565b600082601f8301126200030957600080fd5b81516001600160401b038111156200032557620003256200025d565b60206200033b601f8301601f19168201620002c4565b82815285828487010111156200035057600080fd5b60005b838110156200037057858101830151828201840152820162000353565b506000928101909101919091529392505050565b600060a082840312156200039757600080fd5b620003a162000273565b82519091506001600160401b0380821115620003bc57600080fd5b620003ca85838601620002f7565b83526020840151915080821115620003e157600080fd5b620003ef85838601620002f7565b602084015260408401519150808211156200040957600080fd5b6200041785838601620002f7565b604084015260608401519150808211156200043157600080fd5b6200043f85838601620002f7565b606084015260808401519150808211156200045957600080fd5b506200046884828501620002f7565b60808301525092915050565b6000608082840312156200048757600080fd5b604051608081016001600160401b038082118383101715620004ad57620004ad6200025d565b8160405282935084519150620004c38262000244565b90825260208401519080821115620004da57600080fd5b620004e886838701620002f7565b602084015260408501519150808211156200050257600080fd5b506200051185828601620002f7565b6040830152506060830151600381106200052a57600080fd5b6060919091015292915050565b8051600a81106200054757600080fd5b919050565b805180151581146200054757600080fd5b6000604082840312156200057057600080fd5b604080519081016001600160401b03811182821017156200059557620005956200025d565b604052905080620005a6836200054c565b8152620005b6602084016200054c565b60208201525092915050565b600080600060608486031215620005d857600080fd5b8351620005e58162000244565b6020850151909350620005f88162000244565b60408501519092506001600160401b03808211156200061657600080fd5b9085019061016082880312156200062c57600080fd5b620006366200029e565b825181526020830151828111156200064d57600080fd5b6200065b89828601620002f7565b6020830152506040830151828111156200067457600080fd5b620006828982860162000384565b604083015250606083015160608201526080830151608082015260a083015182811115620006af57600080fd5b620006bd8982860162000474565b60a08301525060c083015182811115620006d657600080fd5b620006e489828601620002f7565b60c08301525060e083015160e082015261010091506200070682840162000537565b8282015261012091506200071d888385016200055d565b828201528093505050509250925092565b600181811c908216806200074357607f821691505b6020821081036200076457634e487b7160e01b600052602260045260246000fd5b50919050565b601f821115620007b857600081815260208120601f850160051c81016020861015620007935750805b601f850160051c820191505b81811015620007b4578281556001016200079f565b5050505b505050565b81516001600160401b03811115620007d957620007d96200025d565b620007f181620007ea84546200072e565b846200076a565b602080601f831160018114620008295760008415620008105750858301515b600019600386901b1c1916600185901b178555620007b4565b600085815260208120601f198616915b828110156200085a5788860151825594840194600190910190840162000839565b5085821015620008795787850151600019600388901b60f8161c191681555b5050505050600190811b01905550565b634e487b7160e01b600052602160045260246000fd5b80820180821115620008c157634e487b7160e01b600052601160045260246000fd5b92915050565b61199080620008d76000396000f3fe6080604052600436106100f35760003560e01c8063657a5e031161008a578063dfa0cfb311610059578063dfa0cfb314610264578063e52a787414610289578063eb7f5f981461029e578063f446c38f146102b357600080fd5b8063657a5e03146101ee57806391f90157146101f6578063c45a01551461022e578063d57bde791461024e57600080fd5b80633e3581a7116100c65780633e3581a714610178578063454a2ab31461018d5780634e859313146101ad5780635cfbeb77146101c357600080fd5b806315bc0eb3146100f857806326232a2e1461011a578063325a19f1146101425780633552fac914610158575b600080fd5b34801561010457600080fd5b50610118610113366004611684565b6102d3565b005b34801561012657600080fd5b5061012f600281565b6040519081526020015b60405180910390f35b34801561014e57600080fd5b5061012f60165481565b34801561016457600080fd5b5061011861017336600461169d565b6104f9565b34801561018457600080fd5b50610118610604565b34801561019957600080fd5b506101186101a8366004611684565b610752565b3480156101b957600080fd5b5061012f60175481565b3480156101cf57600080fd5b506101d8610802565b6040516101399a999897969594939291906117a7565b610118610dd1565b34801561020257600080fd5b50601554610216906001600160a01b031681565b6040516001600160a01b039091168152602001610139565b34801561023a57600080fd5b50600154610216906001600160a01b031681565b34801561025a57600080fd5b5061012f60145481565b34801561027057600080fd5b50610279610f96565b6040519015158152602001610139565b34801561029557600080fd5b506101186111b8565b3480156102aa57600080fd5b50610118611310565b3480156102bf57600080fd5b50601354610216906001600160a01b031681565b6102db6114a8565b600760115460ff1660098111156102f4576102f4611713565b1461036c5760405162461bcd60e51b815260206004820152603060248201527f7365636f6e64426964206e6f7420616c6c6f776564207768656e206f6666657260448201527f206973206e6f742072656a65637465640000000000000000000000000000000060648201526084015b60405180910390fd5b601554336001600160a01b03909116036103c85760405162461bcd60e51b815260206004820152601a60248201527f416c7265616479207468652068696768657374206269646465720000000000006044820152606401610363565b601454811161043f5760405162461bcd60e51b815260206004820152602b60248201527f42696420616d6f756e74206d7573742062652067726561746572207468616e2060448201527f68696768657374206269640000000000000000000000000000000000000000006064820152608401610363565b600b54336001600160a01b03909116036104c15760405162461bcd60e51b815260206004820152602760248201527f53656c6c65722063616e6e6f7420626964206f6e207468656972206f776e207060448201527f726f7065727479000000000000000000000000000000000000000000000000006064820152608401610363565b6014556015805473ffffffffffffffffffffffffffffffffffffffff19163317905560118054600660ff199091161790556001600055565b6013546001600160a01b031633146105665760405162461bcd60e51b815260206004820152602a60248201527f4f6e6c792070726f7065727479206f776e65722063616e2063616c6c207468696044820152693990333ab731ba34b7b760b11b6064820152608401610363565b61056e6114a8565b600560115460ff16600981111561058757610587611713565b036105d45760405162461bcd60e51b815260206004820152601860248201527f50726f706572747920697320616c726561647920736f6c6400000000000000006044820152606401610363565b6013805473ffffffffffffffffffffffffffffffffffffffff19166001600160a01b038316179055600160005550565b6013546001600160a01b031633146106715760405162461bcd60e51b815260206004820152602a60248201527f4f6e6c792070726f7065727479206f776e65722063616e2063616c6c207468696044820152693990333ab731ba34b7b760b11b6064820152608401610363565b6106796114a8565b600660115460ff16600981111561069257610692611713565b146106df5760405162461bcd60e51b815260206004820181905260248201527f50726f7065727479206973206e6f74206f70656e20666f722062696464696e676044820152606401610363565b6000601454116107315760405162461bcd60e51b815260206004820152601660248201527f4e6f20626964732068617665206265656e206d616465000000000000000000006044820152606401610363565b601180546007919060ff19166001835b02179055506107506001600055565b565b61075a6114a8565b60175442101561079c576017546040517ff1fa6b1000000000000000000000000000000000000000000000000000000000815260040161036391815260200190565b600060115460ff1660098111156107b5576107b5611713565b1461036c5760405162461bcd60e51b815260206004820181905260248201527f50726f7065727479206973206e6f74206f70656e20666f722062696464696e676044820152606401610363565b6002805460038054919291610816906118b8565b80601f0160208091040260200160405190810160405280929190818152602001828054610842906118b8565b801561088f5780601f106108645761010080835404028352916020019161088f565b820191906000526020600020905b81548152906001019060200180831161087257829003601f168201915b505050505090806002016040518060a00160405290816000820180546108b4906118b8565b80601f01602080910402602001604051908101604052809291908181526020018280546108e0906118b8565b801561092d5780601f106109025761010080835404028352916020019161092d565b820191906000526020600020905b81548152906001019060200180831161091057829003601f168201915b50505050508152602001600182018054610946906118b8565b80601f0160208091040260200160405190810160405280929190818152602001828054610972906118b8565b80156109bf5780601f10610994576101008083540402835291602001916109bf565b820191906000526020600020905b8154815290600101906020018083116109a257829003601f168201915b505050505081526020016002820180546109d8906118b8565b80601f0160208091040260200160405190810160405280929190818152602001828054610a04906118b8565b8015610a515780601f10610a2657610100808354040283529160200191610a51565b820191906000526020600020905b815481529060010190602001808311610a3457829003601f168201915b50505050508152602001600382018054610a6a906118b8565b80601f0160208091040260200160405190810160405280929190818152602001828054610a96906118b8565b8015610ae35780601f10610ab857610100808354040283529160200191610ae3565b820191906000526020600020905b815481529060010190602001808311610ac657829003601f168201915b50505050508152602001600482018054610afc906118b8565b80601f0160208091040260200160405190810160405280929190818152602001828054610b28906118b8565b8015610b755780601f10610b4a57610100808354040283529160200191610b75565b820191906000526020600020905b815481529060010190602001808311610b5857829003601f168201915b505050919092525050506007820154600883015460408051608081019091526009850180546001600160a01b03168252600a8601805495969495939493602084019190610bc1906118b8565b80601f0160208091040260200160405190810160405280929190818152602001828054610bed906118b8565b8015610c3a5780601f10610c0f57610100808354040283529160200191610c3a565b820191906000526020600020905b815481529060010190602001808311610c1d57829003601f168201915b50505050508152602001600282018054610c53906118b8565b80601f0160208091040260200160405190810160405280929190818152602001828054610c7f906118b8565b8015610ccc5780601f10610ca157610100808354040283529160200191610ccc565b820191906000526020600020905b815481529060010190602001808311610caf57829003601f168201915b5050509183525050600382015460209091019060ff166002811115610cf357610cf3611713565b6002811115610d0457610d04611713565b815250509080600d018054610d18906118b8565b80601f0160208091040260200160405190810160405280929190818152602001828054610d44906118b8565b8015610d915780601f10610d6657610100808354040283529160200191610d91565b820191906000526020600020905b815481529060010190602001808311610d7457829003601f168201915b50505050600e830154600f8401546040805180820190915260109095015460ff80821615158752610100909104811615156020870152939491931691508a565b6015546001600160a01b03163314610e3e5760405162461bcd60e51b815260206004820152602a60248201527f4f6e6c792068696768657374206269646465722063616e2063616c6c207468696044820152693990333ab731ba34b7b760b11b6064820152608401610363565b610e466114a8565b600860115460ff166009811115610e5f57610e5f611713565b14610eac5760405162461bcd60e51b815260206004820152601060248201527f426964206e6f74206163636570746564000000000000000000000000000000006044820152606401610363565b6015546001600160a01b03163314610f2c5760405162461bcd60e51b815260206004820152602760248201527f4f6e6c792068696768657374206269646465722063616e20616363657074207460448201527f68652073656c6c000000000000000000000000000000000000000000000000006064820152608401610363565b6014543414610f7d5760405162461bcd60e51b815260206004820152601560248201527f496e636f727265637420616d6f756e742073656e7400000000000000000000006044820152606401610363565b6012805461ff0019166101001790556107506001600055565b6001546000906001600160a01b031633146110195760405162461bcd60e51b815260206004820152602360248201527f4f6e6c7920666163746f72792063616e2063616c6c20746869732066756e637460448201527f696f6e00000000000000000000000000000000000000000000000000000000006064820152608401610363565b6110216114a8565b600560115460ff16600981111561103a5761103a611713565b146110875760405162461bcd60e51b815260206004820152601460248201527f50726f7065727479206973206e6f7420736f6c640000000000000000000000006044820152606401610363565b47806110d55760405162461bcd60e51b815260206004820152601760248201527f436f6e747261637420686173206e6f2062616c616e63650000000000000000006044820152606401610363565b601554601380546001600160a01b0390921673ffffffffffffffffffffffffffffffffffffffff199092169190911790556011805460ff1916600917905561111c81611501565b91508161116b5760405162461bcd60e51b815260206004820152601f60248201527f5472616e736665722070726f70657274792066756e6473206661696c65642e006044820152606401610363565b601354600b546040516001600160a01b0392831692909116907f7fd0323aae6d324ceaa61c5e1564b3c3a84d38216da5434d73194ae51f1b6bb290600090a3506111b56001600055565b90565b6013546001600160a01b031633146112255760405162461bcd60e51b815260206004820152602a60248201527f4f6e6c792070726f7065727479206f776e65722063616e2063616c6c207468696044820152693990333ab731ba34b7b760b11b6064820152608401610363565b61122d6114a8565b600660115460ff16600981111561124657611246611713565b146112935760405162461bcd60e51b815260206004820181905260248201527f50726f7065727479206973206e6f74206f70656e20666f722062696464696e676044820152606401610363565b6000601454116112e55760405162461bcd60e51b815260206004820152601660248201527f4e6f20626964732068617665206265656e206d616465000000000000000000006044820152606401610363565b601180546008919060ff191660018302179055506012805460ff191660011790556107506001600055565b6013546001600160a01b0316331461137d5760405162461bcd60e51b815260206004820152602a60248201527f4f6e6c792070726f7065727479206f776e65722063616e2063616c6c207468696044820152693990333ab731ba34b7b760b11b6064820152608401610363565b6113856114a8565b600860115460ff16600981111561139e5761139e611713565b146113eb5760405162461bcd60e51b815260206004820152601060248201527f426964206e6f74206163636570746564000000000000000000000000000000006044820152606401610363565b60125460ff1661143d5760405162461bcd60e51b815260206004820181905260248201527f53656c6c657220686173206e6f74206163636570746564207468652073656c6c6044820152606401610363565b601254610100900460ff166114945760405162461bcd60e51b815260206004820152601f60248201527f427579657220686173206e6f74206163636570746564207468652073656c6c006044820152606401610363565b601180546005919060ff1916600183610741565b6002600054036114fa5760405162461bcd60e51b815260206004820152601f60248201527f5265656e7472616e637947756172643a207265656e7472616e742063616c6c006044820152606401610363565b6002600055565b6000806064611511600285611908565b61151b9190611925565b6001546040519192506000916001600160a01b039091169083908381818185875af1925050503d806000811461156d576040519150601f19603f3d011682016040523d82523d6000602084013e611572565b606091505b50509050806115c35760405162461bcd60e51b815260206004820152601f60248201527f5472616e736665722066656520746f20666163746f7279206661696c65642e006044820152606401610363565b60006115cf8386611947565b600b546040519192506001600160a01b031690600090829084908381818185875af1925050503d8060008114611621576040519150601f19603f3d011682016040523d82523d6000602084013e611626565b606091505b50509050806116775760405162461bcd60e51b815260206004820152601060248201527f5472616e73666572206661696c65642e000000000000000000000000000000006044820152606401610363565b5060019695505050505050565b60006020828403121561169657600080fd5b5035919050565b6000602082840312156116af57600080fd5b81356001600160a01b03811681146116c657600080fd5b9392505050565b6000815180845260005b818110156116f3576020818501810151868301820152016116d7565b506000602082860101526020601f19601f83011685010191505092915050565b634e487b7160e01b600052602160045260246000fd5b6001600160a01b038151168252600060208201516080602085015261175160808501826116cd565b90506040830151848203604086015261176a82826116cd565b91505060608301516003811061178257611782611713565b806060860152508091505092915050565b600a81106117a3576117a3611713565b9052565b60006101608c83528060208401526117c18184018d6116cd565b905082810360408401528a5160a082526117de60a08301826116cd565b905060208c015182820360208401526117f782826116cd565b91505060408c0151828203604084015261181182826116cd565b91505060608c0151828203606084015261182b82826116cd565b91505060808c0151828203608084015261184582826116cd565b9250505089606084015288608084015282810360a08401526118678189611729565b905082810360c084015261187b81886116cd565b9150508460e0830152611892610100830185611793565b82511515610120830152602083015115156101408301529b9a5050505050505050505050565b600181811c908216806118cc57607f821691505b6020821081036118ec57634e487b7160e01b600052602260045260246000fd5b50919050565b634e487b7160e01b600052601160045260246000fd5b808202811582820484141761191f5761191f6118f2565b92915050565b60008261194257634e487b7160e01b600052601260045260246000fd5b500490565b8181038181111561191f5761191f6118f256fea2646970667358221220667d026528f36614a2678104be104ae9ac7bfd88d74542bb623d07b053c4d88e64736f6c63430008110033",
  "linkReferences": {},
  "deployedLinkReferences": {}
}