{
  "_format": "hh-sol-artifact-1",
  "contractName": "StakeVault",
  "sourceName": "contracts/token/staking/StakeVault.sol",
  "abi": [
    {
      "inputs": [
        {
          "internalType": "address",
          "name": "_token",
          "type": "address"
        },
        {
          "internalType": "address",
          "name": "_factoryController",
          "type": "address"
        }
      ],
      "stateMutability": "nonpayable",
      "type": "constructor"
    },
    {
      "inputs": [],
      "name": "AddressCannotBeZero",
      "type": "error"
    },
    {
      "inputs": [],
      "name": "AmountIsZero",
      "type": "error"
    },
    {
      "inputs": [],
      "name": "CannotRecoverAQRToken",
      "type": "error"
    },
    {
      "inputs": [],
      "name": "InsufficientBalance",
      "type": "error"
    },
    {
      "inputs": [],
      "name": "NoAllowance",
      "type": "error"
    },
    {
      "inputs": [],
      "name": "OnlyDistributor",
      "type": "error"
    },
    {
      "inputs": [],
      "name": "OnlyFactoryController",
      "type": "error"
    },
    {
      "inputs": [],
      "name": "PreviousRewardsPeriodNotEnded",
      "type": "error"
    },
    {
      "inputs": [],
      "name": "StakingPeriodHasEnded",
      "type": "error"
    },
    {
      "inputs": [],
      "name": "StakingPeriodNotEnded",
      "type": "error"
    },
    {
      "anonymous": false,
      "inputs": [
        {
          "indexed": true,
          "internalType": "address",
          "name": "token",
          "type": "address"
        },
        {
          "indexed": true,
          "internalType": "uint256",
          "name": "amount",
          "type": "uint256"
        }
      ],
      "name": "Recovered",
      "type": "event"
    },
    {
      "anonymous": false,
      "inputs": [
        {
          "indexed": true,
          "internalType": "uint256",
          "name": "reward",
          "type": "uint256"
        }
      ],
      "name": "RewardAdded",
      "type": "event"
    },
    {
      "anonymous": false,
      "inputs": [
        {
          "indexed": true,
          "internalType": "address",
          "name": "newDistributor",
          "type": "address"
        }
      ],
      "name": "RewardDistributorUpdated",
      "type": "event"
    },
    {
      "anonymous": false,
      "inputs": [
        {
          "indexed": true,
          "internalType": "address",
          "name": "user",
          "type": "address"
        },
        {
          "indexed": true,
          "internalType": "uint256",
          "name": "reward",
          "type": "uint256"
        }
      ],
      "name": "RewardPaid",
      "type": "event"
    },
    {
      "anonymous": false,
      "inputs": [
        {
          "indexed": true,
          "internalType": "uint256",
          "name": "newDuration",
          "type": "uint256"
        }
      ],
      "name": "RewardsDurationUpdated",
      "type": "event"
    },
    {
      "anonymous": false,
      "inputs": [
        {
          "indexed": true,
          "internalType": "address",
          "name": "user",
          "type": "address"
        },
        {
          "indexed": true,
          "internalType": "uint256",
          "name": "amount",
          "type": "uint256"
        }
      ],
      "name": "Staked",
      "type": "event"
    },
    {
      "anonymous": false,
      "inputs": [
        {
          "indexed": true,
          "internalType": "address",
          "name": "user",
          "type": "address"
        },
        {
          "indexed": true,
          "internalType": "uint256",
          "name": "amount",
          "type": "uint256"
        }
      ],
      "name": "Withdrawn",
      "type": "event"
    },
    {
      "inputs": [
        {
          "internalType": "address",
          "name": "account",
          "type": "address"
        }
      ],
      "name": "balanceOf",
      "outputs": [
        {
          "internalType": "uint256",
          "name": "",
          "type": "uint256"
        }
      ],
      "stateMutability": "view",
      "type": "function"
    },
    {
      "inputs": [
        {
          "internalType": "address",
          "name": "account",
          "type": "address"
        }
      ],
      "name": "earned",
      "outputs": [
        {
          "internalType": "uint256",
          "name": "",
          "type": "uint256"
        }
      ],
      "stateMutability": "view",
      "type": "function"
    },
    {
      "inputs": [],
      "name": "factoryController",
      "outputs": [
        {
          "internalType": "address",
          "name": "",
          "type": "address"
        }
      ],
      "stateMutability": "view",
      "type": "function"
    },
    {
      "inputs": [],
      "name": "getRewardForDuration",
      "outputs": [
        {
          "internalType": "uint256",
          "name": "",
          "type": "uint256"
        }
      ],
      "stateMutability": "view",
      "type": "function"
    },
    {
      "inputs": [],
      "name": "lastTimeRewardApplicable",
      "outputs": [
        {
          "internalType": "uint256",
          "name": "",
          "type": "uint256"
        }
      ],
      "stateMutability": "view",
      "type": "function"
    },
    {
      "inputs": [],
      "name": "lastUpdateTime",
      "outputs": [
        {
          "internalType": "uint256",
          "name": "",
          "type": "uint256"
        }
      ],
      "stateMutability": "view",
      "type": "function"
    },
    {
      "inputs": [
        {
          "internalType": "uint256",
          "name": "reward",
          "type": "uint256"
        }
      ],
      "name": "notifyRewardAmount",
      "outputs": [],
      "stateMutability": "nonpayable",
      "type": "function"
    },
    {
      "inputs": [],
      "name": "periodFinish",
      "outputs": [
        {
          "internalType": "uint256",
          "name": "",
          "type": "uint256"
        }
      ],
      "stateMutability": "view",
      "type": "function"
    },
    {
      "inputs": [
        {
          "internalType": "address",
          "name": "tokenAddress",
          "type": "address"
        },
        {
          "internalType": "uint256",
          "name": "tokenAmount",
          "type": "uint256"
        }
      ],
      "name": "recoverERC20",
      "outputs": [],
      "stateMutability": "nonpayable",
      "type": "function"
    },
    {
      "inputs": [],
      "name": "rewardDistributor",
      "outputs": [
        {
          "internalType": "address",
          "name": "",
          "type": "address"
        }
      ],
      "stateMutability": "view",
      "type": "function"
    },
    {
      "inputs": [],
      "name": "rewardPerToken",
      "outputs": [
        {
          "internalType": "uint256",
          "name": "",
          "type": "uint256"
        }
      ],
      "stateMutability": "view",
      "type": "function"
    },
    {
      "inputs": [],
      "name": "rewardPerTokenStored",
      "outputs": [
        {
          "internalType": "uint256",
          "name": "",
          "type": "uint256"
        }
      ],
      "stateMutability": "view",
      "type": "function"
    },
    {
      "inputs": [],
      "name": "rewardRate",
      "outputs": [
        {
          "internalType": "uint256",
          "name": "",
          "type": "uint256"
        }
      ],
      "stateMutability": "view",
      "type": "function"
    },
    {
      "inputs": [
        {
          "internalType": "address",
          "name": "",
          "type": "address"
        }
      ],
      "name": "rewards",
      "outputs": [
        {
          "internalType": "uint256",
          "name": "",
          "type": "uint256"
        }
      ],
      "stateMutability": "view",
      "type": "function"
    },
    {
      "inputs": [],
      "name": "rewardsDuration",
      "outputs": [
        {
          "internalType": "uint256",
          "name": "",
          "type": "uint256"
        }
      ],
      "stateMutability": "view",
      "type": "function"
    },
    {
      "inputs": [
        {
          "internalType": "address",
          "name": "_distributor",
          "type": "address"
        }
      ],
      "name": "setRewardDistributor",
      "outputs": [],
      "stateMutability": "nonpayable",
      "type": "function"
    },
    {
      "inputs": [
        {
          "internalType": "uint256",
          "name": "amount",
          "type": "uint256"
        }
      ],
      "name": "stake",
      "outputs": [],
      "stateMutability": "nonpayable",
      "type": "function"
    },
    {
      "inputs": [],
      "name": "token",
      "outputs": [
        {
          "internalType": "contract AqaroTokenInterface",
          "name": "",
          "type": "address"
        }
      ],
      "stateMutability": "view",
      "type": "function"
    },
    {
      "inputs": [],
      "name": "totalSupply",
      "outputs": [
        {
          "internalType": "uint256",
          "name": "",
          "type": "uint256"
        }
      ],
      "stateMutability": "view",
      "type": "function"
    },
    {
      "inputs": [
        {
          "internalType": "address",
          "name": "",
          "type": "address"
        }
      ],
      "name": "userRewardPerTokenPaid",
      "outputs": [
        {
          "internalType": "uint256",
          "name": "",
          "type": "uint256"
        }
      ],
      "stateMutability": "view",
      "type": "function"
    },
    {
      "inputs": [
        {
          "internalType": "uint256",
          "name": "amount",
          "type": "uint256"
        }
      ],
      "name": "withdraw",
      "outputs": [],
      "stateMutability": "nonpayable",
      "type": "function"
    }
  ],
  "bytecode": "0x6080604052600060045560006005556201518060065534801561002157600080fd5b50604051611180380380611180833981016040819052610040916100a4565b60016000819055600280546001600160a01b038086166001600160a01b0319928316179092558254918416911617905561007d42624f1a006100d7565b600455506100fe9050565b80516001600160a01b038116811461009f57600080fd5b919050565b600080604083850312156100b757600080fd5b6100c083610088565b91506100ce60208401610088565b90509250929050565b808201808211156100f857634e487b7160e01b600052601160045260246000fd5b92915050565b6110738061010d6000396000f3fe608060405234801561001057600080fd5b50600436106101765760003560e01c806380faa57d116100d8578063acc2166a1161008c578063df136d6511610066578063df136d65146102e4578063ebe2b12b146102ed578063fc0c546a146102f657600080fd5b8063acc2166a146102c0578063c8f33c91146102d3578063cd3daf9d146102dc57600080fd5b80638b876347116100bd5780638b8763471461027a578063a1809b951461029a578063a694fc3a146102ad57600080fd5b806380faa57d1461025f5780638980f11f1461026757600080fd5b80632e1a7d4d1161012f5780633c6b16ab116101145780633c6b16ab1461021a57806370a082311461022d5780637b0a47ee1461025657600080fd5b80632e1a7d4d146101fc578063386a95251461021157600080fd5b806318160ddd1161016057806318160ddd146101c15780631c1f78eb146101c95780631f287809146101d157600080fd5b80628cc2621461017b5780630700037d146101a1575b600080fd5b61018e610189366004610f28565b610309565b6040519081526020015b60405180910390f35b61018e6101af366004610f28565b600a6020526000908152604090205481565b600b5461018e565b61018e610386565b6001546101e4906001600160a01b031681565b6040516001600160a01b039091168152602001610198565b61020f61020a366004610f4a565b61039d565b005b61018e60065481565b61020f610228366004610f4a565b61061e565b61018e61023b366004610f28565b6001600160a01b03166000908152600c602052604090205490565b61018e60055481565b61018e610839565b61020f610275366004610f63565b610850565b61018e610288366004610f28565b60096020526000908152604090205481565b61020f6102a8366004610f28565b61099c565b61020f6102bb366004610f4a565b610a50565b6003546101e4906001600160a01b031681565b61018e60075481565b61018e610d3a565b61018e60085481565b61018e60045481565b6002546101e4906001600160a01b031681565b6001600160a01b0381166000908152600a60209081526040808320546009909252822054670de0b6b3a76400009061033f610d3a565b6103499190610fa3565b6001600160a01b0385166000908152600c602052604090205461036c9190610fb6565b6103769190610fcd565b6103809190610fef565b92915050565b60006006546005546103989190610fb6565b905090565b6103a5610d9b565b336103ae610d3a565b6008556103b9610839565b6007556001600160a01b03811615610400576103d481610309565b6001600160a01b0382166000908152600a60209081526040808320939093556008546009909152919020555b60045442101561043c576040517fe733132500000000000000000000000000000000000000000000000000000000815260040160405180910390fd5b8160000361045d576040516310eb483f60e21b815260040160405180910390fd5b336000908152600c60205260409020548211156104a6576040517ff4d678b800000000000000000000000000000000000000000000000000000000815260040160405180910390fd5b81600b60008282546104b89190610fa3565b9091555050336000908152600c6020526040812080548492906104dc908490610fa3565b9091555050336000908152600a6020526040902054156104fe576104fe610df4565b6002546000906001600160a01b031663a9059cbb336040517fffffffff0000000000000000000000000000000000000000000000000000000060e084901b1681526001600160a01b039091166004820152602481018690526044016020604051808303816000875af1158015610578573d6000803e3d6000fd5b505050506040513d601f19601f8201168201806040525081019061059c9190611002565b9050806105e25760405162461bcd60e51b815260206004820152600f60248201526e151c985b9cd9995c8819985a5b1959608a1b60448201526064015b60405180910390fd5b604051839033907f7084f5476618d8e60b11ef0d7d3f06914655adb8793e28ff7f018d4c76d505d590600090a3505061061b6001600055565b50565b6003546001600160a01b03163314610662576040517f1b8f6df300000000000000000000000000000000000000000000000000000000815260040160405180910390fd5b600061066c610d3a565b600855610677610839565b6007556001600160a01b038116156106be5761069281610309565b6001600160a01b0382166000908152600a60209081526040808320939093556008546009909152919020555b60045442106106dc576006546106d49083610fcd565b60055561071e565b6000426004546106ec9190610fa3565b90506000600554826106fe9190610fb6565b60065490915061070e8286610fef565b6107189190610fcd565b60055550505b6002546040517f70a082310000000000000000000000000000000000000000000000000000000081523060048201526000916001600160a01b0316906370a0823190602401602060405180830381865afa158015610780573d6000803e3d6000fd5b505050506040513d601f19601f820116820180604052508101906107a49190611024565b9050600654816107b49190610fcd565b60055411156108055760405162461bcd60e51b815260206004820152601860248201527f50726f76696465642072657761726420746f6f2068696768000000000000000060448201526064016105d9565b4260075560405183907fde88a922e0d3b88b24e9623efeb464919c6bf9f66857a65e2bfcf2ce87a9433d90600090a2505050565b6000600454421061084b575060045490565b504290565b6001546001600160a01b0316331461087b57604051631b4e5b5560e21b815260040160405180910390fd5b6001600160a01b0382166108a2576040516303988b8160e61b815260040160405180910390fd5b6002546001600160a01b03908116908316036108ea576040517f2498f58d00000000000000000000000000000000000000000000000000000000815260040160405180910390fd5b60015460405163a9059cbb60e01b81526001600160a01b039182166004820152602481018390529083169063a9059cbb906044016020604051808303816000875af115801561093d573d6000803e3d6000fd5b505050506040513d601f19601f820116820180604052508101906109619190611002565b5060405181906001600160a01b038416907f8c1256b8896378cd5044f80c202f9772b9d77dc85c8a6eb51967210b09bfaa2890600090a35050565b6001546001600160a01b031633146109c757604051631b4e5b5560e21b815260040160405180910390fd5b6001600160a01b0381166109ee576040516303988b8160e61b815260040160405180910390fd5b600380547fffffffffffffffffffffffff0000000000000000000000000000000000000000166001600160a01b0383169081179091556040517f15057bbec20fe352ac8931e529ade6a9ce138c954ffc87d6aa3423dd066c4acd90600090a250565b610a58610d9b565b33610a61610d3a565b600855610a6c610839565b6007556001600160a01b03811615610ab357610a8781610309565b6001600160a01b0382166000908152600a60209081526040808320939093556008546009909152919020555b600454421115610aef576040517fe4cf420800000000000000000000000000000000000000000000000000000000815260040160405180910390fd5b81600003610b10576040516310eb483f60e21b815260040160405180910390fd5b6002546001600160a01b031663dd62ed3e336040517fffffffff0000000000000000000000000000000000000000000000000000000060e084901b1681526001600160a01b039091166004820152306024820152604401602060405180830381865afa158015610b84573d6000803e3d6000fd5b505050506040513d601f19601f82011682018060405250810190610ba89190611024565b821115610be1576040517febf59ac800000000000000000000000000000000000000000000000000000000815260040160405180910390fd5b81600b6000828254610bf39190610fef565b9091555050336000908152600c602052604081208054849290610c17908490610fef565b90915550506002546000906001600160a01b03166323b872dd336040517fffffffff0000000000000000000000000000000000000000000000000000000060e084901b1681526001600160a01b039091166004820152306024820152604481018690526064016020604051808303816000875af1158015610c9c573d6000803e3d6000fd5b505050506040513d601f19601f82011682018060405250810190610cc09190611002565b905080610d015760405162461bcd60e51b815260206004820152600f60248201526e151c985b9cd9995c8819985a5b1959608a1b60448201526064016105d9565b604051839033907f9e71bc8eea02a63969f509818f2dafb9254532904319f9dbda79b67bd34a5f3d90600090a3505061061b6001600055565b6000600b54600003610d4d575060085490565b600b54600554600754610d5e610839565b610d689190610fa3565b610d729190610fb6565b610d8490670de0b6b3a7640000610fb6565b610d8e9190610fcd565b6008546103989190610fef565b600260005403610ded5760405162461bcd60e51b815260206004820152601f60248201527f5265656e7472616e637947756172643a207265656e7472616e742063616c6c0060448201526064016105d9565b6002600055565b336000908152600a6020526040902054801561061b57336000818152600a60209081526040808320839055600254815163a9059cbb60e01b8152600481019590955260248501869052905192936001600160a01b039091169263a9059cbb92604480840193919291829003018187875af1158015610e76573d6000803e3d6000fd5b505050506040513d601f19601f82011682018060405250810190610e9a9190611002565b905080610edb5760405162461bcd60e51b815260206004820152600f60248201526e151c985b9cd9995c8819985a5b1959608a1b60448201526064016105d9565b604051829033907fe2403640ba68fed3a2f88b7557551d1993f84b99bb10ff833f0cf8db0c5e048690600090a35050565b80356001600160a01b0381168114610f2357600080fd5b919050565b600060208284031215610f3a57600080fd5b610f4382610f0c565b9392505050565b600060208284031215610f5c57600080fd5b5035919050565b60008060408385031215610f7657600080fd5b610f7f83610f0c565b946020939093013593505050565b634e487b7160e01b600052601160045260246000fd5b8181038181111561038057610380610f8d565b808202811582820484141761038057610380610f8d565b600082610fea57634e487b7160e01b600052601260045260246000fd5b500490565b8082018082111561038057610380610f8d565b60006020828403121561101457600080fd5b81518015158114610f4357600080fd5b60006020828403121561103657600080fd5b505191905056fea2646970667358221220969f9ad379e33ec85d9f8212973f00afb3b150c753514dca72f4da14b330ec6a64736f6c63430008110033",
  "linkReferences": {},
  "deployedLinkReferences": {}
}